{
  "transactions": [
    {
      "hash": "0x559a79d0a64219b02defe7273788a6c789c230c347a7b65716cbfd4633f64cae",
      "transactionType": "CALL",
      "contractName": null,
      "contractAddress": "0x5fd84259d66cd46123540766be93dfe6d43130d7",
      "function": "approve(address,uint256)",
      "arguments": [
        "0xe40B1a18fAA40E629d32785f502D4971B73302A1",
        "200000"
      ],
      "transaction": {
        "from": "0xc855358e52e0efef34aad09a8914d9ccb6d96f80",
        "to": "0x5fd84259d66cd46123540766be93dfe6d43130d7",
        "gas": "0x12b1b",
        "value": "0x0",
        "input": "0x095ea7b3000000000000000000000000e40b1a18faa40e629d32785f502d4971b73302a10000000000000000000000000000000000000000000000000000000000030d40",
        "nonce": "0x2a",
        "chainId": "0xaa37dc"
      },
      "additionalContracts": [],
      "isFixedGasLimit": false
    }
  ],
  "receipts": [
    {
      "status": "0x1",
      "cumulativeGasUsed": "0x518de",
      "logs": [
        {
          "address": "0x5fd84259d66cd46123540766be93dfe6d43130d7",
          "topics": [
            "0x8c5be1e5ebec7d5bd14f71427d1e84f3dd0314c0f7b2291e5b200ac8c7c3b925",
            "0x000000000000000000000000c855358e52e0efef34aad09a8914d9ccb6d96f80",
            "0x000000000000000000000000e40b1a18faa40e629d32785f502d4971b73302a1"
          ],
          "data": "0x0000000000000000000000000000000000000000000000000000000000030d40",
          "blockHash": "0x0d60f00db932b8174f11a9f05e20171eed9bd7b6a09ba6246a6602fb0b33b373",
          "blockNumber": "0x1268281",
          "transactionHash": "0x559a79d0a64219b02defe7273788a6c789c230c347a7b65716cbfd4633f64cae",
          "transactionIndex": "0x3",
          "logIndex": "0x6",
          "removed": false
        }
      ],
      "logsBloom": "0x00000000000000000000000000000000000000000000000000000000000000000000000000000000000000000000000000000000000000000000020000200000080000000800000000000000000000000000000000000000000000000000008000000000000000000000000000000080000000200000000000000000000000000000000000000000000000000000000000000000000000000000000000000000020000000000000000000000000000000000000400000000000000010000000000000000000000000000000000000000000000000000000080000000000000000010000000000000000000000000000000000000000000000000000000000000",
      "type": "0x2",
      "transactionHash": "0x559a79d0a64219b02defe7273788a6c789c230c347a7b65716cbfd4633f64cae",
      "transactionIndex": "0x3",
      "blockHash": "0x0d60f00db932b8174f11a9f05e20171eed9bd7b6a09ba6246a6602fb0b33b373",
      "blockNumber": "0x1268281",
      "gasUsed": "0xd88d",
      "effectiveGasPrice": "0x1879b",
      "from": "0xc855358e52e0efef34aad09a8914d9ccb6d96f80",
      "to": "0x5fd84259d66cd46123540766be93dfe6d43130d7",
      "contractAddress": null,
      "l1BaseFeeScalar": "0x1db0",
      "l1BlobBaseFee": "0x1",
      "l1BlobBaseFeeScalar": "0xd2730",
      "l1Fee": "0x62d46a8aa",
      "l1GasPrice": "0x820a056c",
      "l1GasUsed": "0x640"
    }
  ],
  "libraries": [],
  "pending": [],
  "returns": {},
  "timestamp": 1730404534,
  "chain": 11155420,
  "commit": "f9bd651"
}