{
  "transactions": [
    {
      "hash": "0x381533838a1e41590db41f5caecc6baf130ac5388793d11509ffcd84b7ac95d9",
      "transactionType": "CALL",
      "contractName": null,
      "contractAddress": "0x5fd84259d66cd46123540766be93dfe6d43130d7",
      "function": "approve(address,uint256)",
      "arguments": [
        "0x65904DE3408216d0E8C18dfdE7198AFBCd3cC5ca",
        "200000"
      ],
      "transaction": {
        "from": "0xc855358e52e0efef34aad09a8914d9ccb6d96f80",
        "to": "0x5fd84259d66cd46123540766be93dfe6d43130d7",
        "gas": "0x12b1b",
        "value": "0x0",
        "input": "0x095ea7b300000000000000000000000065904de3408216d0e8c18dfde7198afbcd3cc5ca0000000000000000000000000000000000000000000000000000000000030d40",
        "nonce": "0x24",
        "chainId": "0xaa37dc"
      },
      "additionalContracts": [],
      "isFixedGasLimit": false
    }
  ],
  "receipts": [
    {
      "status": "0x1",
      "cumulativeGasUsed": "0x15c33b",
      "logs": [
        {
          "address": "0x5fd84259d66cd46123540766be93dfe6d43130d7",
          "topics": [
            "0x8c5be1e5ebec7d5bd14f71427d1e84f3dd0314c0f7b2291e5b200ac8c7c3b925",
            "0x000000000000000000000000c855358e52e0efef34aad09a8914d9ccb6d96f80",
            "0x00000000000000000000000065904de3408216d0e8c18dfde7198afbcd3cc5ca"
          ],
          "data": "0x0000000000000000000000000000000000000000000000000000000000030d40",
          "blockHash": "0x768516441134996561bb071d8811d9395ffb0054c2b49e7c48a8a185711bd9b6",
          "blockNumber": "0x12640d5",
          "transactionHash": "0x381533838a1e41590db41f5caecc6baf130ac5388793d11509ffcd84b7ac95d9",
          "transactionIndex": "0x2",
          "logIndex": "0x10",
          "removed": false
        }
      ],
      "logsBloom": "0x20000000000000000000000000000000000000000000000000000000000000000000000000000000000000000000000000000000000000000000020000200000000000000000000000000000000000000000000000000000000000000000008000000000000000000000000000000000000000200000000000000000000000000000000000000000000000000000000000000000000000000000000000000000020000000000000000000000000000000000000400000000000000010000000000000000000000000000000000000000004000000000000080000000000000000010800000000000000000000000000000000000000000000000000000000000",
      "type": "0x2",
      "transactionHash": "0x381533838a1e41590db41f5caecc6baf130ac5388793d11509ffcd84b7ac95d9",
      "transactionIndex": "0x2",
      "blockHash": "0x768516441134996561bb071d8811d9395ffb0054c2b49e7c48a8a185711bd9b6",
      "blockNumber": "0x12640d5",
      "gasUsed": "0xd88d",
      "effectiveGasPrice": "0xf6a4e",
      "from": "0xc855358e52e0efef34aad09a8914d9ccb6d96f80",
      "to": "0x5fd84259d66cd46123540766be93dfe6d43130d7",
      "contractAddress": null,
      "l1BaseFeeScalar": "0x1db0",
      "l1BlobBaseFee": "0x1",
      "l1BlobBaseFeeScalar": "0xd2730",
      "l1Fee": "0x1188521860",
      "l1GasPrice": "0x1711af630",
      "l1GasUsed": "0x640"
    }
  ],
  "libraries": [],
  "pending": [],
  "returns": {},
  "timestamp": 1730370910,
  "chain": 11155420,
  "commit": "069a84c"
}