{
  "transactions": [
    {
      "hash": "0x92bc5123fe4ea9687fb6afd5bccfdd9afaae0ca331ccddad5c964d5c7a03b980",
      "transactionType": "CALL",
      "contractName": null,
      "contractAddress": "0x9d5f30b785e80e669cc8f9a66798eb1017aa45b2",
      "function": "transfer(uint256,uint16,bytes32)",
      "arguments": [
        "3000000000000000000",
        "10005",
        "0x000000000000000000000000c855358e52e0efef34aad09a8914d9ccb6d96f80"
      ],
      "transaction": {
        "from": "0xc855358e52e0efef34aad09a8914d9ccb6d96f80",
        "to": "0x9d5f30b785e80e669cc8f9a66798eb1017aa45b2",
        "gas": "0x39c59",
        "value": "0x0",
        "input": "0x961b94d000000000000000000000000000000000000000000000000029a2241af62c00000000000000000000000000000000000000000000000000000000000000002715000000000000000000000000c855358e52e0efef34aad09a8914d9ccb6d96f80",
        "nonce": "0x2c",
        "chainId": "0x14a34"
      },
      "additionalContracts": [],
      "isFixedGasLimit": false
    }
  ],
  "receipts": [
    {
      "status": "0x1",
      "cumulativeGasUsed": "0x1b1943",
      "logs": [
        {
          "address": "0x04bb910f008c1df1f2beff29d98b744a7d35d531",
          "topics": [
            "0x8c5be1e5ebec7d5bd14f71427d1e84f3dd0314c0f7b2291e5b200ac8c7c3b925",
            "0x000000000000000000000000c855358e52e0efef34aad09a8914d9ccb6d96f80",
            "0x0000000000000000000000009d5f30b785e80e669cc8f9a66798eb1017aa45b2"
          ],
          "data": "0x0000000000000000000000000000000000000000000000000000000000000000",
          "blockHash": "0xd9364245fd69680bad1fb3a967c4e8e0c4155a82f2bb9c4893b3966a70a48d31",
          "blockNumber": "0x10650d1",
          "transactionHash": "0x92bc5123fe4ea9687fb6afd5bccfdd9afaae0ca331ccddad5c964d5c7a03b980",
          "transactionIndex": "0x9",
          "logIndex": "0x8",
          "removed": false
        },
        {
          "address": "0x04bb910f008c1df1f2beff29d98b744a7d35d531",
          "topics": [
            "0xddf252ad1be2c89b69c2b068fc378daa952ba7f163c4a11628f55a4df523b3ef",
            "0x000000000000000000000000c855358e52e0efef34aad09a8914d9ccb6d96f80",
            "0x0000000000000000000000009d5f30b785e80e669cc8f9a66798eb1017aa45b2"
          ],
          "data": "0x00000000000000000000000000000000000000000000000029a2241af62c0000",
          "blockHash": "0xd9364245fd69680bad1fb3a967c4e8e0c4155a82f2bb9c4893b3966a70a48d31",
          "blockNumber": "0x10650d1",
          "transactionHash": "0x92bc5123fe4ea9687fb6afd5bccfdd9afaae0ca331ccddad5c964d5c7a03b980",
          "transactionIndex": "0x9",
          "logIndex": "0x9",
          "removed": false
        },
        {
          "address": "0x79a1027a6a159502049f10906d333ec57e95f083",
          "topics": [
            "0x6eb224fb001ed210e379b335e35efe88672a8ce935d981a6896b27ffdf52a3b2",
            "0x000000000000000000000000b9a85da4bb98472c1305b86faec8825b2baef5a4"
          ],
          "data": "0x00000000000000000000000000000000000000000000000000000000000000030000000000000000000000000000000000000000000000000000000000000000000000000000000000000000000000000000000000000000000000000000008000000000000000000000000000000000000000000000000000000000000000ca00000000000000000000000000000000000000000000000000000000000000d99945ff100000000000000000000000009d5f30b785e80e669cc8f9a66798eb1017aa45b2000000000000000000000000e0d5517ddf0fa8b21e5c0f023bf315121a6d97c000910000000000000000000000000000000000000000000000000000000000000001000000000000000000000000c855358e52e0efef34aad09a8914d9ccb6d96f80004f994e5454080000000011e1a30000000000000000000000000004bb910f008c1df1f2beff29d98b744a7d35d531000000000000000000000000c855358e52e0efef34aad09a8914d9ccb6d96f802715000000000000000000",
          "blockHash": "0xd9364245fd69680bad1fb3a967c4e8e0c4155a82f2bb9c4893b3966a70a48d31",
          "blockNumber": "0x10650d1",
          "transactionHash": "0x92bc5123fe4ea9687fb6afd5bccfdd9afaae0ca331ccddad5c964d5c7a03b980",
          "transactionIndex": "0x9",
          "logIndex": "0xa",
          "removed": false
        },
        {
          "address": "0xb9a85da4bb98472c1305b86faec8825b2baef5a4",
          "topics": [
            "0xc3192e083c87c556db539f071d8a298869f487e951327b5616a6f85ae3da958e"
          ],
          "data": "0x000000000000000000000000000000000000000000000000000000000000000200000000000000000000000000000000000000000000000000000000000000000000000000000000000000000000000000000000000000000000000000000000",
          "blockHash": "0xd9364245fd69680bad1fb3a967c4e8e0c4155a82f2bb9c4893b3966a70a48d31",
          "blockNumber": "0x10650d1",
          "transactionHash": "0x92bc5123fe4ea9687fb6afd5bccfdd9afaae0ca331ccddad5c964d5c7a03b980",
          "transactionIndex": "0x9",
          "logIndex": "0xb",
          "removed": false
        },
        {
          "address": "0xb9a85da4bb98472c1305b86faec8825b2baef5a4",
          "topics": [
            "0x79376a0dc6cbfe6f6f8f89ad24c262a8c6233f8df181d3fe5abb2e2442e8c738"
          ],
          "data": "0x000000000000000000000000000000000000000000000000000000000000271500000000000000000000000000000000000000000000000000000000000000400000000000000000000000009d5f30b785e80e669cc8f9a66798eb1017aa45b2000000000000000000000000e0d5517ddf0fa8b21e5c0f023bf315121a6d97c00000000000000000000000000000000000000000000000000000000000000080000000000000000000000000000000000000000000000000000000000000014000000000000000000000000000000000000000000000000000000000000000910000000000000000000000000000000000000000000000000000000000000001000000000000000000000000c855358e52e0efef34aad09a8914d9ccb6d96f80004f994e5454080000000011e1a30000000000000000000000000004bb910f008c1df1f2beff29d98b744a7d35d531000000000000000000000000c855358e52e0efef34aad09a8914d9ccb6d96f8027150000000000000000000000000000000000000000000000000000000000000000000000000000000000000000000000",
          "blockHash": "0xd9364245fd69680bad1fb3a967c4e8e0c4155a82f2bb9c4893b3966a70a48d31",
          "blockNumber": "0x10650d1",
          "transactionHash": "0x92bc5123fe4ea9687fb6afd5bccfdd9afaae0ca331ccddad5c964d5c7a03b980",
          "transactionIndex": "0x9",
          "logIndex": "0xc",
          "removed": false
        },
        {
          "address": "0x9d5f30b785e80e669cc8f9a66798eb1017aa45b2",
          "topics": [
            "0xe54e51e42099622516fa3b48e9733581c9dbdcb771cafb093f745a0532a35982"
          ],
          "data": "0x000000000000000000000000c855358e52e0efef34aad09a8914d9ccb6d96f80000000000000000000000000c855358e52e0efef34aad09a8914d9ccb6d96f8000000000000000000000000000000000000000000000000029a2241af62c0000000000000000000000000000000000000000000000000000000000000000000000000000000000000000000000000000000000000000000000000000000027150000000000000000000000000000000000000000000000000000000000000001",
          "blockHash": "0xd9364245fd69680bad1fb3a967c4e8e0c4155a82f2bb9c4893b3966a70a48d31",
          "blockNumber": "0x10650d1",
          "transactionHash": "0x92bc5123fe4ea9687fb6afd5bccfdd9afaae0ca331ccddad5c964d5c7a03b980",
          "transactionIndex": "0x9",
          "logIndex": "0xd",
          "removed": false
        },
        {
          "address": "0x9d5f30b785e80e669cc8f9a66798eb1017aa45b2",
          "topics": [
            "0x3e6ae56314c6da8b461d872f41c6d0bb69317b9d0232805aaccfa45df1a16fa0",
            "0x4f78f7c22610e9c2b996c18b4df8dcd9d2f31f1483ce782496084f0ce35142e8"
          ],
          "data": "0x",
          "blockHash": "0xd9364245fd69680bad1fb3a967c4e8e0c4155a82f2bb9c4893b3966a70a48d31",
          "blockNumber": "0x10650d1",
          "transactionHash": "0x92bc5123fe4ea9687fb6afd5bccfdd9afaae0ca331ccddad5c964d5c7a03b980",
          "transactionIndex": "0x9",
          "logIndex": "0xe",
          "removed": false
        }
      ],
      "logsBloom": "0x00000000000100800000000000000020000000000010000000100000000000000018000000000000000000000000000000000000100000000000000000608000000000000000000000000008000000200000000000100000000000002000008000000000000000000000000000000800000000000080000000000010004000000000000000000200000000000000000000008000000000000000000000000000020000200400000000000080000100000100040a00000000000008010000000000000002000000000000000000000000400002000004000084000000000000002010000000000000000008000000000000000000000001800000000000000010",
      "type": "0x2",
      "transactionHash": "0x92bc5123fe4ea9687fb6afd5bccfdd9afaae0ca331ccddad5c964d5c7a03b980",
      "transactionIndex": "0x9",
      "blockHash": "0xd9364245fd69680bad1fb3a967c4e8e0c4155a82f2bb9c4893b3966a70a48d31",
      "blockNumber": "0x10650d1",
      "gasUsed": "0x29d37",
      "effectiveGasPrice": "0xf43bf",
      "from": "0xc855358e52e0efef34aad09a8914d9ccb6d96f80",
      "to": "0x9d5f30b785e80e669cc8f9a66798eb1017aa45b2",
      "contractAddress": null,
      "l1BaseFeeScalar": "0x44d",
      "l1BlobBaseFee": "0x1",
      "l1BlobBaseFeeScalar": "0xa118b",
      "l1Fee": "0x58555078",
      "l1GasPrice": "0x3224cdbd",
      "l1GasUsed": "0x640"
    }
  ],
  "libraries": [],
  "pending": [],
  "returns": {},
  "timestamp": 1730150532,
  "chain": 84532,
  "commit": "8e687d6"
}