{
  "transactions": [
    {
      "hash": "0x6bba12d2fadbf5c2e135e99fcd69520727d19af90f0b31d8c0d3a7bc6256fb26",
      "transactionType": "CALL",
      "contractName": null,
      "contractAddress": "0x04bb910f008c1df1f2beff29d98b744a7d35d531",
      "function": "approve(address,uint256)",
      "arguments": [
        "0x9d5F30B785e80E669cc8F9A66798Eb1017AA45b2",
        "3000000000000000000"
      ],
      "transaction": {
        "from": "0xc855358e52e0efef34aad09a8914d9ccb6d96f80",
        "to": "0x04bb910f008c1df1f2beff29d98b744a7d35d531",
        "gas": "0x10888",
        "value": "0x0",
        "input": "0x095ea7b30000000000000000000000009d5f30b785e80e669cc8f9a66798eb1017aa45b200000000000000000000000000000000000000000000000029a2241af62c0000",
        "nonce": "0x27",
        "chainId": "0x14a34"
      },
      "additionalContracts": [],
      "isFixedGasLimit": false
    }
  ],
  "receipts": [
    {
      "status": "0x1",
      "cumulativeGasUsed": "0x1a2e3f",
      "logs": [
        {
          "address": "0x04bb910f008c1df1f2beff29d98b744a7d35d531",
          "topics": [
            "0x8c5be1e5ebec7d5bd14f71427d1e84f3dd0314c0f7b2291e5b200ac8c7c3b925",
            "0x000000000000000000000000c855358e52e0efef34aad09a8914d9ccb6d96f80",
            "0x0000000000000000000000009d5f30b785e80e669cc8f9a66798eb1017aa45b2"
          ],
          "data": "0x00000000000000000000000000000000000000000000000029a2241af62c0000",
          "blockHash": "0x9e744b5c69a465eaad3b4f09cd3ac25f3c6b90c1a9c6abce308b8d114660be0e",
          "blockNumber": "0x1064653",
          "transactionHash": "0x6bba12d2fadbf5c2e135e99fcd69520727d19af90f0b31d8c0d3a7bc6256fb26",
          "transactionIndex": "0x9",
          "logIndex": "0x10",
          "removed": false
        }
      ],
      "logsBloom": "0x00000000000000800000000000000020000000000000000000000000000000000000000000000000000000000000000000000000100000000000000000200000000000000000000000000000000000000000000000000000000000000000008000000000000000000000000000000800000000000000000000000000000000000000000000000000000000000000000000000000000000000000000000000000020000000000000000000080000000000000000800000000000000010000000000000000000000000000000000000000000000000000000080000000000000000010000000000000000000000000000000000000000000000000000000000000",
      "type": "0x2",
      "transactionHash": "0x6bba12d2fadbf5c2e135e99fcd69520727d19af90f0b31d8c0d3a7bc6256fb26",
      "transactionIndex": "0x9",
      "blockHash": "0x9e744b5c69a465eaad3b4f09cd3ac25f3c6b90c1a9c6abce308b8d114660be0e",
      "blockNumber": "0x1064653",
      "gasUsed": "0xb4e1",
      "effectiveGasPrice": "0xf43bd",
      "from": "0xc855358e52e0efef34aad09a8914d9ccb6d96f80",
      "to": "0x04bb910f008c1df1f2beff29d98b744a7d35d531",
      "contractAddress": null,
      "l1BaseFeeScalar": "0x44d",
      "l1BlobBaseFee": "0x1",
      "l1BlobBaseFeeScalar": "0xa118b",
      "l1Fee": "0x5c9e662d",
      "l1GasPrice": "0x349394c5",
      "l1GasUsed": "0x640"
    }
  ],
  "libraries": [],
  "pending": [],
  "returns": {},
  "timestamp": 1730145161,
  "chain": 84532,
  "commit": "8e687d6"
}