{
  "transactions": [
    {
      "hash": "0x674800a8f411811e71a338a1e6e8fcae66cbf2bf8b9f7fa25bf9c19db309e5e8",
      "transactionType": "CALL",
      "contractName": null,
      "contractAddress": "0x04bb910f008c1df1f2beff29d98b744a7d35d531",
      "function": "approve(address,uint256)",
      "arguments": [
        "0x9d5F30B785e80E669cc8F9A66798Eb1017AA45b2",
        "3000000000000000000"
      ],
      "transaction": {
        "from": "0xc855358e52e0efef34aad09a8914d9ccb6d96f80",
        "to": "0x04bb910f008c1df1f2beff29d98b744a7d35d531",
        "gas": "0x10888",
        "value": "0x0",
        "input": "0x095ea7b30000000000000000000000009d5f30b785e80e669cc8f9a66798eb1017aa45b200000000000000000000000000000000000000000000000029a2241af62c0000",
        "nonce": "0x29",
        "chainId": "0x14a34"
      },
      "additionalContracts": [],
      "isFixedGasLimit": false
    }
  ],
  "receipts": [
    {
      "status": "0x1",
      "cumulativeGasUsed": "0x2e5947",
      "logs": [
        {
          "address": "0x04bb910f008c1df1f2beff29d98b744a7d35d531",
          "topics": [
            "0x8c5be1e5ebec7d5bd14f71427d1e84f3dd0314c0f7b2291e5b200ac8c7c3b925",
            "0x000000000000000000000000c855358e52e0efef34aad09a8914d9ccb6d96f80",
            "0x0000000000000000000000009d5f30b785e80e669cc8f9a66798eb1017aa45b2"
          ],
          "data": "0x00000000000000000000000000000000000000000000000029a2241af62c0000",
          "blockHash": "0x7e65eea3eb9d5b927439e98e0eb2756d97b6cb112f948c5eec349794a8e72097",
          "blockNumber": "0x106500f",
          "transactionHash": "0x674800a8f411811e71a338a1e6e8fcae66cbf2bf8b9f7fa25bf9c19db309e5e8",
          "transactionIndex": "0xe",
          "logIndex": "0x1c",
          "removed": false
        }
      ],
      "logsBloom": "0x00000000000000800000000000000020000000000000000000000000000000000000000000000000000000000000000000000000100000000000000000200000000000000000000000000000000000000000000000000000000000000000008000000000000000000000000000000800000000000000000000000000000000000000000000000000000000000000000000000000000000000000000000000000020000000000000000000080000000000000000800000000000000010000000000000000000000000000000000000000000000000000000080000000000000000010000000000000000000000000000000000000000000000000000000000000",
      "type": "0x2",
      "transactionHash": "0x674800a8f411811e71a338a1e6e8fcae66cbf2bf8b9f7fa25bf9c19db309e5e8",
      "transactionIndex": "0xe",
      "blockHash": "0x7e65eea3eb9d5b927439e98e0eb2756d97b6cb112f948c5eec349794a8e72097",
      "blockNumber": "0x106500f",
      "gasUsed": "0xb4e1",
      "effectiveGasPrice": "0xf43c3",
      "from": "0xc855358e52e0efef34aad09a8914d9ccb6d96f80",
      "to": "0x04bb910f008c1df1f2beff29d98b744a7d35d531",
      "contractAddress": null,
      "l1BaseFeeScalar": "0x44d",
      "l1BlobBaseFee": "0x1",
      "l1BlobBaseFeeScalar": "0xa118b",
      "l1Fee": "0x5bc44d72",
      "l1GasPrice": "0x3417c671",
      "l1GasUsed": "0x640"
    }
  ],
  "libraries": [],
  "pending": [],
  "returns": {},
  "timestamp": 1730150150,
  "chain": 84532,
  "commit": "8e687d6"
}