{
  "transactions": [
    {
      "hash": "0x8bec6b0f7587bd48507cb019b253bd38615ce9e84bf9a22f8e2066182e7bca21",
      "transactionType": "CALL",
      "contractName": null,
      "contractAddress": "0x75faf114eafb1bdbe2f0316df893fd58ce46aa4d",
      "function": "approve(address,uint256)",
      "arguments": [
        "0xA336A3a70fAE2E24eF009C751b416853f6d872ab",
        "200000"
      ],
      "transaction": {
        "from": "0xc855358e52e0efef34aad09a8914d9ccb6d96f80",
        "to": "0x75faf114eafb1bdbe2f0316df893fd58ce46aa4d",
        "gas": "0x1233b",
        "value": "0x0",
        "input": "0x095ea7b3000000000000000000000000a336a3a70fae2e24ef009c751b416853f6d872ab0000000000000000000000000000000000000000000000000000000000030d40",
        "nonce": "0x1",
        "chainId": "0x66eee"
      },
      "additionalContracts": [],
      "isFixedGasLimit": false
    }
  ],
  "receipts": [
    {
      "status": "0x1",
      "cumulativeGasUsed": "0x8210c",
      "logs": [
        {
          "address": "0x75faf114eafb1bdbe2f0316df893fd58ce46aa4d",
          "topics": [
            "0x8c5be1e5ebec7d5bd14f71427d1e84f3dd0314c0f7b2291e5b200ac8c7c3b925",
            "0x000000000000000000000000c855358e52e0efef34aad09a8914d9ccb6d96f80",
            "0x000000000000000000000000a336a3a70fae2e24ef009c751b416853f6d872ab"
          ],
          "data": "0x0000000000000000000000000000000000000000000000000000000000030d40",
          "blockHash": "0xd678046fba482a970e2949644f6e26e0c75e38b1263f7163cf97ae564768e483",
          "blockNumber": "0x5902f19",
          "transactionHash": "0x8bec6b0f7587bd48507cb019b253bd38615ce9e84bf9a22f8e2066182e7bca21",
          "transactionIndex": "0x4",
          "logIndex": "0x4",
          "removed": false
        }
      ],
      "logsBloom": "0x00000000000000000000000000000000000000000000000000000000000000000000000000000000000000000000000000000000000000000000000000204000800000000000000000000000000000000000000000000000000000000000008000000000000040000000000000000000000000000000000000000000000200000000000000000000000000000000000000000000000000000000000000000000020000000000000000000000000000000000000000000000000000010000000000000000000000000000000000000000000000000000000080000000000000000010000000000000000000000000000000000000000000000100000000000004",
      "type": "0x2",
      "transactionHash": "0x8bec6b0f7587bd48507cb019b253bd38615ce9e84bf9a22f8e2066182e7bca21",
      "transactionIndex": "0x4",
      "blockHash": "0xd678046fba482a970e2949644f6e26e0c75e38b1263f7163cf97ae564768e483",
      "blockNumber": "0x5902f19",
      "gasUsed": "0xdbe5",
      "effectiveGasPrice": "0x5f5e100",
      "from": "0xc855358e52e0efef34aad09a8914d9ccb6d96f80",
      "to": "0x75faf114eafb1bdbe2f0316df893fd58ce46aa4d",
      "contractAddress": null,
      "gasUsedForL1": "0x364",
      "l1BlockNumber": "0x6a975a"
    }
  ],
  "libraries": [],
  "pending": [],
  "returns": {},
  "timestamp": 1730405830,
  "chain": 421614,
  "commit": "f9bd651"
}