{
  "transactions": [
    {
      "hash": "0xfc8d32bafd12206eb9656357ca7031760031165d5604c4f013fbc46d7f53ad5c",
      "transactionType": "CALL",
      "contractName": null,
      "contractAddress": "0x036cbd53842c5426634e7929541ec2318f3dcf7e",
      "function": "approve(address,uint256)",
      "arguments": [
        "0x65904DE3408216d0E8C18dfdE7198AFBCd3cC5ca",
        "200000"
      ],
      "transaction": {
        "from": "0xc855358e52e0efef34aad09a8914d9ccb6d96f80",
        "to": "0x036cbd53842c5426634e7929541ec2318f3dcf7e",
        "gas": "0xdb03",
        "value": "0x0",
        "input": "0x095ea7b300000000000000000000000065904de3408216d0e8c18dfde7198afbcd3cc5ca0000000000000000000000000000000000000000000000000000000000030d40",
        "nonce": "0x58",
        "chainId": "0x14a34"
      },
      "additionalContracts": [],
      "isFixedGasLimit": false
    }
  ],
  "receipts": [
    {
      "status": "0x1",
      "cumulativeGasUsed": "0x21d9dd",
      "logs": [
        {
          "address": "0x036cbd53842c5426634e7929541ec2318f3dcf7e",
          "topics": [
            "0x8c5be1e5ebec7d5bd14f71427d1e84f3dd0314c0f7b2291e5b200ac8c7c3b925",
            "0x000000000000000000000000c855358e52e0efef34aad09a8914d9ccb6d96f80",
            "0x00000000000000000000000065904de3408216d0e8c18dfde7198afbcd3cc5ca"
          ],
          "data": "0x0000000000000000000000000000000000000000000000000000000000030d40",
          "blockHash": "0x67621e954a68d71b964b3dac3df926835f44503e5dadab8f64ab59fb794912c9",
          "blockNumber": "0x1080a1a",
          "transactionHash": "0xfc8d32bafd12206eb9656357ca7031760031165d5604c4f013fbc46d7f53ad5c",
          "transactionIndex": "0xc",
          "logIndex": "0x1c",
          "removed": false
        }
      ],
      "logsBloom": "0x20000000040000000000000000000000000000000000000000000000000000000000000000000000000000000000000000000000000000000000000000200000000000000000000000000000000000000000000000000000000000000000008800000000000000000000000000000000000000000000000000000000000000000000000000000000000000000000000000000000000000000000000000000000020000000000000000000000000000000000000000000000000000010000000000000000000000000000000000000000004000000000000080000000000000000010800000000000000000000020000000000000000000000000000000000000",
      "type": "0x2",
      "transactionHash": "0xfc8d32bafd12206eb9656357ca7031760031165d5604c4f013fbc46d7f53ad5c",
      "transactionIndex": "0xc",
      "blockHash": "0x67621e954a68d71b964b3dac3df926835f44503e5dadab8f64ab59fb794912c9",
      "blockNumber": "0x1080a1a",
      "gasUsed": "0x95c1",
      "effectiveGasPrice": "0xf46cb",
      "from": "0xc855358e52e0efef34aad09a8914d9ccb6d96f80",
      "to": "0x036cbd53842c5426634e7929541ec2318f3dcf7e",
      "contractAddress": null,
      "l1BaseFeeScalar": "0x44d",
      "l1BlobBaseFee": "0x1",
      "l1BlobBaseFeeScalar": "0xa118b",
      "l1Fee": "0xf4542d09",
      "l1GasPrice": "0x8ab27508",
      "l1GasUsed": "0x640"
    }
  ],
  "libraries": [],
  "pending": [],
  "returns": {},
  "timestamp": 1730376470,
  "chain": 84532,
  "commit": "069a84c"
}