{
  "transactions": [
    {
      "hash": "0x5158d9ea5f63de215abc0355605cdb8ab26d05f1a50724e78d4e992b9a377eea",
      "transactionType": "CALL",
      "contractName": null,
      "contractAddress": "0x036cbd53842c5426634e7929541ec2318f3dcf7e",
      "function": "approve(address,uint256)",
      "arguments": [
        "0x0E0693DCCaf7e1637960B0588f7658180eB9B460",
        "2000000"
      ],
      "transaction": {
        "from": "0xc855358e52e0efef34aad09a8914d9ccb6d96f80",
        "to": "0x036cbd53842c5426634e7929541ec2318f3dcf7e",
        "gas": "0x12b1b",
        "value": "0x0",
        "input": "0x095ea7b30000000000000000000000000e0693dccaf7e1637960b0588f7658180eb9b46000000000000000000000000000000000000000000000000000000000001e8480",
        "nonce": "0x4c",
        "chainId": "0x14a34"
      },
      "additionalContracts": [],
      "isFixedGasLimit": false
    }
  ],
  "receipts": [
    {
      "status": "0x1",
      "cumulativeGasUsed": "0x1ec671",
      "logs": [
        {
          "address": "0x036cbd53842c5426634e7929541ec2318f3dcf7e",
          "topics": [
            "0x8c5be1e5ebec7d5bd14f71427d1e84f3dd0314c0f7b2291e5b200ac8c7c3b925",
            "0x000000000000000000000000c855358e52e0efef34aad09a8914d9ccb6d96f80",
            "0x0000000000000000000000000e0693dccaf7e1637960b0588f7658180eb9b460"
          ],
          "data": "0x00000000000000000000000000000000000000000000000000000000001e8480",
          "blockHash": "0x86c35c423c73b7dc77c035680ee3957fa299390993f1a2f1f749816fe22417e3",
          "blockNumber": "0x107f48a",
          "transactionHash": "0x5158d9ea5f63de215abc0355605cdb8ab26d05f1a50724e78d4e992b9a377eea",
          "transactionIndex": "0xd",
          "logIndex": "0x1a",
          "removed": false
        }
      ],
      "logsBloom": "0x00000000040000000000000000000000000000000000000000000000000000000000000000000000000000000000000000000000000000000000000000200000000000000000000000000000000000000000000000000000000000000000008800000000000000000000000000000000000000000000000000000000000000000000000000000000000000000000000000000000000000000000000040000000020000000000000000000000000000000000000000000000000000010000000000000000000000000000000000000000000000000000000080000000000000000010000000000000000000000020000000000040000000000000000000000002",
      "type": "0x2",
      "transactionHash": "0x5158d9ea5f63de215abc0355605cdb8ab26d05f1a50724e78d4e992b9a377eea",
      "transactionIndex": "0xd",
      "blockHash": "0x86c35c423c73b7dc77c035680ee3957fa299390993f1a2f1f749816fe22417e3",
      "blockNumber": "0x107f48a",
      "gasUsed": "0xd88d",
      "effectiveGasPrice": "0xf43c9",
      "from": "0xc855358e52e0efef34aad09a8914d9ccb6d96f80",
      "to": "0x036cbd53842c5426634e7929541ec2318f3dcf7e",
      "contractAddress": null,
      "l1BaseFeeScalar": "0x44d",
      "l1BlobBaseFee": "0x1",
      "l1BlobBaseFeeScalar": "0xa118b",
      "l1Fee": "0x154b48dd0",
      "l1GasPrice": "0xc1681f10",
      "l1GasUsed": "0x640"
    }
  ],
  "libraries": [],
  "pending": [],
  "returns": {},
  "timestamp": 1730365430,
  "chain": 84532,
  "commit": "069a84c"
}