{
  "transactions": [
    {
      "hash": "0xe0db69b88a866bb9969cf30daf4f127e9e2a5420da4cc67b4ab4e97131959fca",
      "transactionType": "CALL",
      "contractName": null,
      "contractAddress": "0x036cbd53842c5426634e7929541ec2318f3dcf7e",
      "function": "approve(address,uint256)",
      "arguments": [
        "0x05CCFbf786483Cc84C6D76a0558a0252482C6315",
        "200000"
      ],
      "transaction": {
        "from": "0xc855358e52e0efef34aad09a8914d9ccb6d96f80",
        "to": "0x036cbd53842c5426634e7929541ec2318f3dcf7e",
        "gas": "0x12b1b",
        "value": "0x0",
        "input": "0x095ea7b300000000000000000000000005ccfbf786483cc84c6d76a0558a0252482c63150000000000000000000000000000000000000000000000000000000000030d40",
        "nonce": "0x53",
        "chainId": "0x14a34"
      },
      "additionalContracts": [],
      "isFixedGasLimit": false
    }
  ],
  "receipts": [
    {
      "status": "0x1",
      "cumulativeGasUsed": "0x159ffa",
      "logs": [
        {
          "address": "0x036cbd53842c5426634e7929541ec2318f3dcf7e",
          "topics": [
            "0x8c5be1e5ebec7d5bd14f71427d1e84f3dd0314c0f7b2291e5b200ac8c7c3b925",
            "0x000000000000000000000000c855358e52e0efef34aad09a8914d9ccb6d96f80",
            "0x00000000000000000000000005ccfbf786483cc84c6d76a0558a0252482c6315"
          ],
          "data": "0x0000000000000000000000000000000000000000000000000000000000030d40",
          "blockHash": "0x067745427738e292926b75d3a1745db73d18804ebc1aae5d922ae807be0f4526",
          "blockNumber": "0x1080661",
          "transactionHash": "0xe0db69b88a866bb9969cf30daf4f127e9e2a5420da4cc67b4ab4e97131959fca",
          "transactionIndex": "0x10",
          "logIndex": "0xe",
          "removed": false
        }
      ],
      "logsBloom": "0x00000000040000000000000000000000000000000000000000000000000000000000000000000000000000000000000000000000000000000000000000200000000000000000000000000000000000000000000000000000000000000000008800000000000200000000000000000000000000000000000000000000000000000000000000000000000000000000000000000000000000000000000000000000020000000000000000000000000000000000000000000000000000010000000000000000000000000000000000000000000000000000000080000000000000000010000000000000000000000020000000002000000000000000800000000000",
      "type": "0x2",
      "transactionHash": "0xe0db69b88a866bb9969cf30daf4f127e9e2a5420da4cc67b4ab4e97131959fca",
      "transactionIndex": "0x10",
      "blockHash": "0x067745427738e292926b75d3a1745db73d18804ebc1aae5d922ae807be0f4526",
      "blockNumber": "0x1080661",
      "gasUsed": "0xd88d",
      "effectiveGasPrice": "0xf46b7",
      "from": "0xc855358e52e0efef34aad09a8914d9ccb6d96f80",
      "to": "0x036cbd53842c5426634e7929541ec2318f3dcf7e",
      "contractAddress": null,
      "l1BaseFeeScalar": "0x44d",
      "l1BlobBaseFee": "0x1",
      "l1BlobBaseFeeScalar": "0xa118b",
      "l1Fee": "0x27264e9a7",
      "l1GasPrice": "0x1639520be",
      "l1GasUsed": "0x640"
    }
  ],
  "libraries": [],
  "pending": [],
  "returns": {},
  "timestamp": 1730374564,
  "chain": 84532,
  "commit": "069a84c"
}