{
  "transactions": [
    {
      "hash": "0xe176fabb4071953acbb4d7425591d814dc1b2b50e52b12538c925449c432d993",
      "transactionType": "CALL",
      "contractName": null,
      "contractAddress": "0x036cbd53842c5426634e7929541ec2318f3dcf7e",
      "function": "approve(address,uint256)",
      "arguments": [
        "0xf3867C7278aA9d3d14DCde4A19A95eeb9e3c40cC",
        "10"
      ],
      "transaction": {
        "from": "0xc855358e52e0efef34aad09a8914d9ccb6d96f80",
        "to": "0x036cbd53842c5426634e7929541ec2318f3dcf7e",
        "gas": "0x12afa",
        "value": "0x0",
        "input": "0x095ea7b3000000000000000000000000f3867c7278aa9d3d14dcde4a19a95eeb9e3c40cc000000000000000000000000000000000000000000000000000000000000000a",
        "nonce": "0x3f",
        "chainId": "0x14a34"
      },
      "additionalContracts": [],
      "isFixedGasLimit": false
    }
  ],
  "receipts": [
    {
      "status": "0x1",
      "cumulativeGasUsed": "0x68db0",
      "logs": [
        {
          "address": "0x036cbd53842c5426634e7929541ec2318f3dcf7e",
          "topics": [
            "0x8c5be1e5ebec7d5bd14f71427d1e84f3dd0314c0f7b2291e5b200ac8c7c3b925",
            "0x000000000000000000000000c855358e52e0efef34aad09a8914d9ccb6d96f80",
            "0x000000000000000000000000f3867c7278aa9d3d14dcde4a19a95eeb9e3c40cc"
          ],
          "data": "0x000000000000000000000000000000000000000000000000000000000000000a",
          "blockHash": "0xde0e5b731bd175fa9da3a764cb5af15ed93d266c15dfabc12e3b24be54607424",
          "blockNumber": "0x107a6a4",
          "transactionHash": "0xe176fabb4071953acbb4d7425591d814dc1b2b50e52b12538c925449c432d993",
          "transactionIndex": "0x8",
          "logIndex": "0x3",
          "removed": false
        }
      ],
      "logsBloom": "0x00000000040000000000000000000000000000000000000000000000000000000000000000000000000000000000000000000000000000000000000000200000000000000000000000000000000000000000000000000000000000000000008800000000000000000000000000400004000000000000000000000000000000000000000000000000000000000000000000000000000000000000000000000000020000000000000000000000000000000000000000000000000000010000000000000000000000000000000000200000000000000000000080000000000000000010000000000000000000000020000000000000000000000000000000000000",
      "type": "0x2",
      "transactionHash": "0xe176fabb4071953acbb4d7425591d814dc1b2b50e52b12538c925449c432d993",
      "transactionIndex": "0x8",
      "blockHash": "0xde0e5b731bd175fa9da3a764cb5af15ed93d266c15dfabc12e3b24be54607424",
      "blockNumber": "0x107a6a4",
      "gasUsed": "0xd875",
      "effectiveGasPrice": "0xf4378",
      "from": "0xc855358e52e0efef34aad09a8914d9ccb6d96f80",
      "to": "0x036cbd53842c5426634e7929541ec2318f3dcf7e",
      "contractAddress": null,
      "l1BaseFeeScalar": "0x44d",
      "l1BlobBaseFee": "0x1",
      "l1BlobBaseFeeScalar": "0xa118b",
      "l1Fee": "0xc0fbb372",
      "l1GasPrice": "0x6d8cc9ef",
      "l1GasUsed": "0x640"
    }
  ],
  "libraries": [],
  "pending": [],
  "returns": {},
  "timestamp": 1730325545,
  "chain": 84532,
  "commit": "069a84c"
}