{
  "transactions": [
    {
      "hash": "0xd9cb8e8e1a9bbded92d1d4d650e062872cde53f3246ac67d259cf15348b6802e",
      "transactionType": "CALL",
      "contractName": null,
      "contractAddress": "0x036cbd53842c5426634e7929541ec2318f3dcf7e",
      "function": "approve(address,uint256)",
      "arguments": [
        "0x3e9CBdE058d55A0E417378CdD2E304E8E59Fc059",
        "2000000"
      ],
      "transaction": {
        "from": "0xc855358e52e0efef34aad09a8914d9ccb6d96f80",
        "to": "0x036cbd53842c5426634e7929541ec2318f3dcf7e",
        "gas": "0x12b1b",
        "value": "0x0",
        "input": "0x095ea7b30000000000000000000000003e9cbde058d55a0e417378cdd2e304e8e59fc05900000000000000000000000000000000000000000000000000000000001e8480",
        "nonce": "0x46",
        "chainId": "0x14a34"
      },
      "additionalContracts": [],
      "isFixedGasLimit": false
    }
  ],
  "receipts": [
    {
      "status": "0x1",
      "cumulativeGasUsed": "0x150315",
      "logs": [
        {
          "address": "0x036cbd53842c5426634e7929541ec2318f3dcf7e",
          "topics": [
            "0x8c5be1e5ebec7d5bd14f71427d1e84f3dd0314c0f7b2291e5b200ac8c7c3b925",
            "0x000000000000000000000000c855358e52e0efef34aad09a8914d9ccb6d96f80",
            "0x0000000000000000000000003e9cbde058d55a0e417378cdd2e304e8e59fc059"
          ],
          "data": "0x00000000000000000000000000000000000000000000000000000000001e8480",
          "blockHash": "0x0293bc3eb470d2b5de414f5cff16159debb9debc036ab64bc97729ea5ce7e01c",
          "blockNumber": "0x107a952",
          "transactionHash": "0xd9cb8e8e1a9bbded92d1d4d650e062872cde53f3246ac67d259cf15348b6802e",
          "transactionIndex": "0x10",
          "logIndex": "0x19",
          "removed": false
        }
      ],
      "logsBloom": "0x00000000040000000000000000000000000000000000000000000000000000000000000000000000000000000000000000000000000000000000000000200000000000000000000000000000000000000000000000000000000000000000008800000000000000000000000000000000000000000000000000000000000000000000000000000000000000000000000000000000000000008000000000000000020000000000000000000002000000000000000000000000000000010000000000000000000000000000000000000000000001000000000080000000000000000010000000000000000000000020000000000000000000000000000000000000",
      "type": "0x2",
      "transactionHash": "0xd9cb8e8e1a9bbded92d1d4d650e062872cde53f3246ac67d259cf15348b6802e",
      "transactionIndex": "0x10",
      "blockHash": "0x0293bc3eb470d2b5de414f5cff16159debb9debc036ab64bc97729ea5ce7e01c",
      "blockNumber": "0x107a952",
      "gasUsed": "0xd88d",
      "effectiveGasPrice": "0xf438c",
      "from": "0xc855358e52e0efef34aad09a8914d9ccb6d96f80",
      "to": "0x036cbd53842c5426634e7929541ec2318f3dcf7e",
      "contractAddress": null,
      "l1BaseFeeScalar": "0x44d",
      "l1BlobBaseFee": "0x1",
      "l1BlobBaseFeeScalar": "0xa118b",
      "l1Fee": "0xbf20bf82",
      "l1GasPrice": "0x6c7f2ca0",
      "l1GasUsed": "0x640"
    }
  ],
  "libraries": [],
  "pending": [],
  "returns": {},
  "timestamp": 1730326917,
  "chain": 84532,
  "commit": "069a84c"
}