{
  "transactions": [
    {
      "hash": "0x572e7106957ed6c2cbfbbcdbe79ff22bf33fdd47f9adbaa1cb0029d5271b4918",
      "transactionType": "CALL",
      "contractName": null,
      "contractAddress": "0x036cbd53842c5426634e7929541ec2318f3dcf7e",
      "function": "approve(address,uint256)",
      "arguments": [
        "0xA996e2C06fA9a8efCEb387f5B955081e8c560CD9",
        "2000000"
      ],
      "transaction": {
        "from": "0xc855358e52e0efef34aad09a8914d9ccb6d96f80",
        "to": "0x036cbd53842c5426634e7929541ec2318f3dcf7e",
        "gas": "0xdb03",
        "value": "0x0",
        "input": "0x095ea7b3000000000000000000000000a996e2c06fa9a8efceb387f5b955081e8c560cd900000000000000000000000000000000000000000000000000000000001e8480",
        "nonce": "0x44",
        "chainId": "0x14a34"
      },
      "additionalContracts": [],
      "isFixedGasLimit": false
    }
  ],
  "receipts": [
    {
      "status": "0x1",
      "cumulativeGasUsed": "0x161b8",
      "logs": [
        {
          "address": "0x036cbd53842c5426634e7929541ec2318f3dcf7e",
          "topics": [
            "0x8c5be1e5ebec7d5bd14f71427d1e84f3dd0314c0f7b2291e5b200ac8c7c3b925",
            "0x000000000000000000000000c855358e52e0efef34aad09a8914d9ccb6d96f80",
            "0x000000000000000000000000a996e2c06fa9a8efceb387f5b955081e8c560cd9"
          ],
          "data": "0x00000000000000000000000000000000000000000000000000000000001e8480",
          "blockHash": "0xac4b1d2d2f9cfed40610b8abfd2594c575d1bf83b6c208b6ea1f4e6614779d1d",
          "blockNumber": "0x107a84c",
          "transactionHash": "0x572e7106957ed6c2cbfbbcdbe79ff22bf33fdd47f9adbaa1cb0029d5271b4918",
          "transactionIndex": "0x1",
          "logIndex": "0x0",
          "removed": false
        }
      ],
      "logsBloom": "0x00000000040000000000000000000000000000000000000000000000000000000000000000000000000000000000000000000000000000000000000000200000000000000000000000000000000000000000000000000000000000000000008800000000000000000000000000000000000000000000000000000000000000000000000000000000000000000000000000000000000000000041000000000000020200000000000000000000000000000000000000000000000000010000000000000000000000000000000000000000000000000000000080000000000000000010000000000000000000000020000000000000000000000000000000000000",
      "type": "0x2",
      "transactionHash": "0x572e7106957ed6c2cbfbbcdbe79ff22bf33fdd47f9adbaa1cb0029d5271b4918",
      "transactionIndex": "0x1",
      "blockHash": "0xac4b1d2d2f9cfed40610b8abfd2594c575d1bf83b6c208b6ea1f4e6614779d1d",
      "blockNumber": "0x107a84c",
      "gasUsed": "0x95c1",
      "effectiveGasPrice": "0xf4394",
      "from": "0xc855358e52e0efef34aad09a8914d9ccb6d96f80",
      "to": "0x036cbd53842c5426634e7929541ec2318f3dcf7e",
      "contractAddress": null,
      "l1BaseFeeScalar": "0x44d",
      "l1BlobBaseFee": "0x1",
      "l1BlobBaseFeeScalar": "0xa118b",
      "l1Fee": "0xa5562111",
      "l1GasPrice": "0x5ddb17f9",
      "l1GasUsed": "0x640"
    }
  ],
  "libraries": [],
  "pending": [],
  "returns": {},
  "timestamp": 1730326399,
  "chain": 84532,
  "commit": "069a84c"
}