{
  "transactions": [
    {
      "hash": "0xbb7f60ad9bc8fd666b8e36a567b066837b3147dbdeef5d8880ffd6abaa3fca88",
      "transactionType": "CALL",
      "contractName": null,
      "contractAddress": "0x036cbd53842c5426634e7929541ec2318f3dcf7e",
      "function": "approve(address,uint256)",
      "arguments": [
        "0xA996e2C06fA9a8efCEb387f5B955081e8c560CD9",
        "10"
      ],
      "transaction": {
        "from": "0xc855358e52e0efef34aad09a8914d9ccb6d96f80",
        "to": "0x036cbd53842c5426634e7929541ec2318f3dcf7e",
        "gas": "0x12afa",
        "value": "0x0",
        "input": "0x095ea7b3000000000000000000000000a996e2c06fa9a8efceb387f5b955081e8c560cd9000000000000000000000000000000000000000000000000000000000000000a",
        "nonce": "0x43",
        "chainId": "0x14a34"
      },
      "additionalContracts": [],
      "isFixedGasLimit": false
    }
  ],
  "receipts": [
    {
      "status": "0x1",
      "cumulativeGasUsed": "0xc31c0",
      "logs": [
        {
          "address": "0x036cbd53842c5426634e7929541ec2318f3dcf7e",
          "topics": [
            "0x8c5be1e5ebec7d5bd14f71427d1e84f3dd0314c0f7b2291e5b200ac8c7c3b925",
            "0x000000000000000000000000c855358e52e0efef34aad09a8914d9ccb6d96f80",
            "0x000000000000000000000000a996e2c06fa9a8efceb387f5b955081e8c560cd9"
          ],
          "data": "0x000000000000000000000000000000000000000000000000000000000000000a",
          "blockHash": "0xb71ccf4e1f8887246455536307825900435f45e7b0b4dc27197f5c34277c7fcf",
          "blockNumber": "0x107a811",
          "transactionHash": "0xbb7f60ad9bc8fd666b8e36a567b066837b3147dbdeef5d8880ffd6abaa3fca88",
          "transactionIndex": "0x8",
          "logIndex": "0xe",
          "removed": false
        }
      ],
      "logsBloom": "0x00000000040000000000000000000000000000000000000000000000000000000000000000000000000000000000000000000000000000000000000000200000000000000000000000000000000000000000000000000000000000000000008800000000000000000000000000000000000000000000000000000000000000000000000000000000000000000000000000000000000000000041000000000000020200000000000000000000000000000000000000000000000000010000000000000000000000000000000000000000000000000000000080000000000000000010000000000000000000000020000000000000000000000000000000000000",
      "type": "0x2",
      "transactionHash": "0xbb7f60ad9bc8fd666b8e36a567b066837b3147dbdeef5d8880ffd6abaa3fca88",
      "transactionIndex": "0x8",
      "blockHash": "0xb71ccf4e1f8887246455536307825900435f45e7b0b4dc27197f5c34277c7fcf",
      "blockNumber": "0x107a811",
      "gasUsed": "0xd875",
      "effectiveGasPrice": "0xf4396",
      "from": "0xc855358e52e0efef34aad09a8914d9ccb6d96f80",
      "to": "0x036cbd53842c5426634e7929541ec2318f3dcf7e",
      "contractAddress": null,
      "l1BaseFeeScalar": "0x44d",
      "l1BlobBaseFee": "0x1",
      "l1BlobBaseFeeScalar": "0xa118b",
      "l1Fee": "0xa306ff40",
      "l1GasPrice": "0x5c8b8738",
      "l1GasUsed": "0x640"
    }
  ],
  "libraries": [],
  "pending": [],
  "returns": {},
  "timestamp": 1730326275,
  "chain": 84532,
  "commit": "069a84c"
}