{
  "transactions": [
    {
      "hash": "0xa738cb5bdfe6e5a4dadcc3103b4872e9b5e83451465f950ff3647aeaa244b880",
      "transactionType": "CALL",
      "contractName": null,
      "contractAddress": "0x036cbd53842c5426634e7929541ec2318f3dcf7e",
      "function": "approve(address,uint256)",
      "arguments": [
        "0xE50f52b05FF8b09D96A77e339F620880B1A96001",
        "10"
      ],
      "transaction": {
        "from": "0xc855358e52e0efef34aad09a8914d9ccb6d96f80",
        "to": "0x036cbd53842c5426634e7929541ec2318f3dcf7e",
        "gas": "0x12afa",
        "value": "0x0",
        "input": "0x095ea7b3000000000000000000000000e50f52b05ff8b09d96a77e339f620880b1a96001000000000000000000000000000000000000000000000000000000000000000a",
        "nonce": "0x41",
        "chainId": "0x14a34"
      },
      "additionalContracts": [],
      "isFixedGasLimit": false
    }
  ],
  "receipts": [
    {
      "status": "0x1",
      "cumulativeGasUsed": "0x1f8ab8",
      "logs": [
        {
          "address": "0x036cbd53842c5426634e7929541ec2318f3dcf7e",
          "topics": [
            "0x8c5be1e5ebec7d5bd14f71427d1e84f3dd0314c0f7b2291e5b200ac8c7c3b925",
            "0x000000000000000000000000c855358e52e0efef34aad09a8914d9ccb6d96f80",
            "0x000000000000000000000000e50f52b05ff8b09d96a77e339f620880b1a96001"
          ],
          "data": "0x000000000000000000000000000000000000000000000000000000000000000a",
          "blockHash": "0x1a81864c07766df28d8067b5600e2d5810df259ba4e00a52af0d9b8ebaeb179f",
          "blockNumber": "0x107a73c",
          "transactionHash": "0xa738cb5bdfe6e5a4dadcc3103b4872e9b5e83451465f950ff3647aeaa244b880",
          "transactionIndex": "0xf",
          "logIndex": "0x29",
          "removed": false
        }
      ],
      "logsBloom": "0x00000000040000000000000000000000000000020000000000000000000020000000000000000000000000000000000000000000000000000000000000200000000000000000000000000000000000000000000000000000000000000000008800000000000000000000000000000000000000000000000000000000000000000000000000000000000200000000000000000000000000000000000000000000020000000000000000000000000000000000000000000000000000010000000000000000000000000000000000000000000000000000000080000000000000000010000000000000000000000020000000000000000000000000000000000000",
      "type": "0x2",
      "transactionHash": "0xa738cb5bdfe6e5a4dadcc3103b4872e9b5e83451465f950ff3647aeaa244b880",
      "transactionIndex": "0xf",
      "blockHash": "0x1a81864c07766df28d8067b5600e2d5810df259ba4e00a52af0d9b8ebaeb179f",
      "blockNumber": "0x107a73c",
      "gasUsed": "0xd875",
      "effectiveGasPrice": "0xf4379",
      "from": "0xc855358e52e0efef34aad09a8914d9ccb6d96f80",
      "to": "0x036cbd53842c5426634e7929541ec2318f3dcf7e",
      "contractAddress": null,
      "l1BaseFeeScalar": "0x44d",
      "l1BlobBaseFee": "0x1",
      "l1BlobBaseFeeScalar": "0xa118b",
      "l1Fee": "0x9fa3430e",
      "l1GasPrice": "0x5a9ef1d6",
      "l1GasUsed": "0x640"
    }
  ],
  "libraries": [],
  "pending": [],
  "returns": {},
  "timestamp": 1730325849,
  "chain": 84532,
  "commit": "069a84c"
}