{
  "transactions": [
    {
      "hash": "0x105283cb9f63182d1072b29407572ab8cf19cbaaaeb5e79665af6c9336e72a6d",
      "transactionType": "CALL",
      "contractName": null,
      "contractAddress": "0x036cbd53842c5426634e7929541ec2318f3dcf7e",
      "function": "approve(address,uint256)",
      "arguments": [
        "0x65904DE3408216d0E8C18dfdE7198AFBCd3cC5ca",
        "20000000"
      ],
      "transaction": {
        "from": "0xc855358e52e0efef34aad09a8914d9ccb6d96f80",
        "to": "0x036cbd53842c5426634e7929541ec2318f3dcf7e",
        "gas": "0xdb03",
        "value": "0x0",
        "input": "0x095ea7b300000000000000000000000065904de3408216d0e8c18dfde7198afbcd3cc5ca0000000000000000000000000000000000000000000000000000000001312d00",
        "nonce": "0x51",
        "chainId": "0x14a34"
      },
      "additionalContracts": [],
      "isFixedGasLimit": false
    }
  ],
  "receipts": [
    {
      "status": "0x1",
      "cumulativeGasUsed": "0x14b88c",
      "logs": [
        {
          "address": "0x036cbd53842c5426634e7929541ec2318f3dcf7e",
          "topics": [
            "0x8c5be1e5ebec7d5bd14f71427d1e84f3dd0314c0f7b2291e5b200ac8c7c3b925",
            "0x000000000000000000000000c855358e52e0efef34aad09a8914d9ccb6d96f80",
            "0x00000000000000000000000065904de3408216d0e8c18dfde7198afbcd3cc5ca"
          ],
          "data": "0x0000000000000000000000000000000000000000000000000000000001312d00",
          "blockHash": "0x22c5a5e4b0d067b9ad9979281e17eb345b0d005adb602d25efb6c1bce1756838",
          "blockNumber": "0x107fe97",
          "transactionHash": "0x105283cb9f63182d1072b29407572ab8cf19cbaaaeb5e79665af6c9336e72a6d",
          "transactionIndex": "0x11",
          "logIndex": "0x15",
          "removed": false
        }
      ],
      "logsBloom": "0x20000000040000000000000000000000000000000000000000000000000000000000000000000000000000000000000000000000000000000000000000200000000000000000000000000000000000000000000000000000000000000000008800000000000000000000000000000000000000000000000000000000000000000000000000000000000000000000000000000000000000000000000000000000020000000000000000000000000000000000000000000000000000010000000000000000000000000000000000000000004000000000000080000000000000000010800000000000000000000020000000000000000000000000000000000000",
      "type": "0x2",
      "transactionHash": "0x105283cb9f63182d1072b29407572ab8cf19cbaaaeb5e79665af6c9336e72a6d",
      "transactionIndex": "0x11",
      "blockHash": "0x22c5a5e4b0d067b9ad9979281e17eb345b0d005adb602d25efb6c1bce1756838",
      "blockNumber": "0x107fe97",
      "gasUsed": "0x95c1",
      "effectiveGasPrice": "0xf439c",
      "from": "0xc855358e52e0efef34aad09a8914d9ccb6d96f80",
      "to": "0x036cbd53842c5426634e7929541ec2318f3dcf7e",
      "contractAddress": null,
      "l1BaseFeeScalar": "0x44d",
      "l1BlobBaseFee": "0x1",
      "l1BlobBaseFeeScalar": "0xa118b",
      "l1Fee": "0x380e67552",
      "l1GasPrice": "0x1fd23b945",
      "l1GasUsed": "0x640"
    }
  ],
  "libraries": [],
  "pending": [],
  "returns": {},
  "timestamp": 1730370576,
  "chain": 84532,
  "commit": "069a84c"
}