{
  "transactions": [
    {
      "hash": "0x4614dbb3945738c0db6240e747af7c86546d8cb8b3fba3cff5aa515e9488b6cd",
      "transactionType": "CALL",
      "contractName": null,
      "contractAddress": "0x036cbd53842c5426634e7929541ec2318f3dcf7e",
      "function": "approve(address,uint256)",
      "arguments": [
        "0x4d2268e486d73754752EaE1C0e238D3A9Eb0852f",
        "200000"
      ],
      "transaction": {
        "from": "0xc855358e52e0efef34aad09a8914d9ccb6d96f80",
        "to": "0x036cbd53842c5426634e7929541ec2318f3dcf7e",
        "gas": "0x12b1b",
        "value": "0x0",
        "input": "0x095ea7b30000000000000000000000004d2268e486d73754752eae1c0e238d3a9eb0852f0000000000000000000000000000000000000000000000000000000000030d40",
        "nonce": "0x56",
        "chainId": "0x14a34"
      },
      "additionalContracts": [],
      "isFixedGasLimit": false
    }
  ],
  "receipts": [
    {
      "status": "0x1",
      "cumulativeGasUsed": "0x7fff6",
      "logs": [
        {
          "address": "0x036cbd53842c5426634e7929541ec2318f3dcf7e",
          "topics": [
            "0x8c5be1e5ebec7d5bd14f71427d1e84f3dd0314c0f7b2291e5b200ac8c7c3b925",
            "0x000000000000000000000000c855358e52e0efef34aad09a8914d9ccb6d96f80",
            "0x0000000000000000000000004d2268e486d73754752eae1c0e238d3a9eb0852f"
          ],
          "data": "0x0000000000000000000000000000000000000000000000000000000000030d40",
          "blockHash": "0xfd5b7937679563c7906942aae4e847c7cf4508362b9b29273e2675a9385a2fe6",
          "blockNumber": "0x108089c",
          "transactionHash": "0x4614dbb3945738c0db6240e747af7c86546d8cb8b3fba3cff5aa515e9488b6cd",
          "transactionIndex": "0x4",
          "logIndex": "0x8",
          "removed": false
        }
      ],
      "logsBloom": "0x00000000040000000000000000000000000000000000000000000000000000000000000000000000000000000000000000000000000000000000000000200000000000000000000000000000000000000000000000000000000000000000008800000000000000000000000000000000000000000000000000000000000000000000000080000000000000000000000000010000000000000000000000000000020000000000000000000000000000000000000000000000000000010000000000000000000000000000000000000000000000000000000080000000010000000010000000000000000000000020000000000000000000000000000000000000",
      "type": "0x2",
      "transactionHash": "0x4614dbb3945738c0db6240e747af7c86546d8cb8b3fba3cff5aa515e9488b6cd",
      "transactionIndex": "0x4",
      "blockHash": "0xfd5b7937679563c7906942aae4e847c7cf4508362b9b29273e2675a9385a2fe6",
      "blockNumber": "0x108089c",
      "gasUsed": "0xd88d",
      "effectiveGasPrice": "0xf46b5",
      "from": "0xc855358e52e0efef34aad09a8914d9ccb6d96f80",
      "to": "0x036cbd53842c5426634e7929541ec2318f3dcf7e",
      "contractAddress": null,
      "l1BaseFeeScalar": "0x44d",
      "l1BlobBaseFee": "0x1",
      "l1BlobBaseFeeScalar": "0xa118b",
      "l1Fee": "0x14f7851a7",
      "l1GasPrice": "0xbe6f50da",
      "l1GasUsed": "0x640"
    }
  ],
  "libraries": [],
  "pending": [],
  "returns": {},
  "timestamp": 1730375706,
  "chain": 84532,
  "commit": "069a84c"
}