{
  "transactions": [
    {
      "hash": "0x87207a6dd1038458eb321956b656221d4c22daf5b29c9207db870b27a40d5cef",
      "transactionType": "CALL",
      "contractName": null,
      "contractAddress": "0x036cbd53842c5426634e7929541ec2318f3dcf7e",
      "function": "approve(address,uint256)",
      "arguments": [
        "0xCA9dbE454D683a19695010f964844b78646CDAab",
        "2000000"
      ],
      "transaction": {
        "from": "0xc855358e52e0efef34aad09a8914d9ccb6d96f80",
        "to": "0x036cbd53842c5426634e7929541ec2318f3dcf7e",
        "gas": "0x12b1b",
        "value": "0x0",
        "input": "0x095ea7b3000000000000000000000000ca9dbe454d683a19695010f964844b78646cdaab00000000000000000000000000000000000000000000000000000000001e8480",
        "nonce": "0x4a",
        "chainId": "0x14a34"
      },
      "additionalContracts": [],
      "isFixedGasLimit": false
    }
  ],
  "receipts": [
    {
      "status": "0x1",
      "cumulativeGasUsed": "0x2d9c7a",
      "logs": [
        {
          "address": "0x036cbd53842c5426634e7929541ec2318f3dcf7e",
          "topics": [
            "0x8c5be1e5ebec7d5bd14f71427d1e84f3dd0314c0f7b2291e5b200ac8c7c3b925",
            "0x000000000000000000000000c855358e52e0efef34aad09a8914d9ccb6d96f80",
            "0x000000000000000000000000ca9dbe454d683a19695010f964844b78646cdaab"
          ],
          "data": "0x00000000000000000000000000000000000000000000000000000000001e8480",
          "blockHash": "0x4012f59b900d0696abf42de30c0c3b2bb9e6afecba623da5391e13bad10ddeb9",
          "blockNumber": "0x107e742",
          "transactionHash": "0x87207a6dd1038458eb321956b656221d4c22daf5b29c9207db870b27a40d5cef",
          "transactionIndex": "0xd",
          "logIndex": "0x20",
          "removed": false
        }
      ],
      "logsBloom": "0x00000000040000000000000000000000000000000000000000000000000000000000000000000000000000000000000000000000000000000000000000200000000000000000000000000000000000000000000100000000000000000000008800000000000000000000000000000000000000000000000000000000000000000000000000000000000000000000000000000000000000000000000000000000020000000000000000000000000000400000040000000000000000010000000000000000000000000000000000000000000000000000000080000000000000000010000000000000000000000020000000000000000000000000000000000000",
      "type": "0x2",
      "transactionHash": "0x87207a6dd1038458eb321956b656221d4c22daf5b29c9207db870b27a40d5cef",
      "transactionIndex": "0xd",
      "blockHash": "0x4012f59b900d0696abf42de30c0c3b2bb9e6afecba623da5391e13bad10ddeb9",
      "blockNumber": "0x107e742",
      "gasUsed": "0xd88d",
      "effectiveGasPrice": "0xf43d3",
      "from": "0xc855358e52e0efef34aad09a8914d9ccb6d96f80",
      "to": "0x036cbd53842c5426634e7929541ec2318f3dcf7e",
      "contractAddress": null,
      "l1BaseFeeScalar": "0x44d",
      "l1BlobBaseFee": "0x1",
      "l1BlobBaseFeeScalar": "0xa118b",
      "l1Fee": "0xea652cc0",
      "l1GasPrice": "0x850ee1eb",
      "l1GasUsed": "0x640"
    }
  ],
  "libraries": [],
  "pending": [],
  "returns": {},
  "timestamp": 1730358636,
  "chain": 84532,
  "commit": "069a84c"
}