{
  "transactions": [
    {
      "hash": "0x36f3596a1d27571fc8c6670885d31a1a3080e5b828eeb269fad43987252519e2",
      "transactionType": "CALL",
      "contractName": null,
      "contractAddress": "0x036cbd53842c5426634e7929541ec2318f3dcf7e",
      "function": "approve(address,uint256)",
      "arguments": [
        "0x4d2268e486d73754752EaE1C0e238D3A9Eb0852f",
        "200000"
      ],
      "transaction": {
        "from": "0xc855358e52e0efef34aad09a8914d9ccb6d96f80",
        "to": "0x036cbd53842c5426634e7929541ec2318f3dcf7e",
        "gas": "0x12b1b",
        "value": "0x0",
        "input": "0x095ea7b30000000000000000000000004d2268e486d73754752eae1c0e238d3a9eb0852f0000000000000000000000000000000000000000000000000000000000030d40",
        "nonce": "0x59",
        "chainId": "0x14a34"
      },
      "additionalContracts": [],
      "isFixedGasLimit": false
    }
  ],
  "receipts": [
    {
      "status": "0x1",
      "cumulativeGasUsed": "0x102f29",
      "logs": [
        {
          "address": "0x036cbd53842c5426634e7929541ec2318f3dcf7e",
          "topics": [
            "0x8c5be1e5ebec7d5bd14f71427d1e84f3dd0314c0f7b2291e5b200ac8c7c3b925",
            "0x000000000000000000000000c855358e52e0efef34aad09a8914d9ccb6d96f80",
            "0x0000000000000000000000004d2268e486d73754752eae1c0e238d3a9eb0852f"
          ],
          "data": "0x0000000000000000000000000000000000000000000000000000000000030d40",
          "blockHash": "0x218d0a27e9fdfeb29047a87c588593f8cd321c425a3d65e2d261f02a8357512e",
          "blockNumber": "0x1080b13",
          "transactionHash": "0x36f3596a1d27571fc8c6670885d31a1a3080e5b828eeb269fad43987252519e2",
          "transactionIndex": "0x6",
          "logIndex": "0xc",
          "removed": false
        }
      ],
      "logsBloom": "0x00000000040000000000000000000000000000000000000000000000000000000000000000000000000000000000000000000000000000000000000000200000000000000000000000000000000000000000000000000000000000000000008800000000000000000000000000000000000000000000000000000000000000000000000080000000000000000000000000010000000000000000000000000000020000000000000000000000000000000000000000000000000000010000000000000000000000000000000000000000000000000000000080000000010000000010000000000000000000000020000000000000000000000000000000000000",
      "type": "0x2",
      "transactionHash": "0x36f3596a1d27571fc8c6670885d31a1a3080e5b828eeb269fad43987252519e2",
      "transactionIndex": "0x6",
      "blockHash": "0x218d0a27e9fdfeb29047a87c588593f8cd321c425a3d65e2d261f02a8357512e",
      "blockNumber": "0x1080b13",
      "gasUsed": "0xd88d",
      "effectiveGasPrice": "0xf46cf",
      "from": "0xc855358e52e0efef34aad09a8914d9ccb6d96f80",
      "to": "0x036cbd53842c5426634e7929541ec2318f3dcf7e",
      "contractAddress": null,
      "l1BaseFeeScalar": "0x44d",
      "l1BlobBaseFee": "0x1",
      "l1BlobBaseFeeScalar": "0xa118b",
      "l1Fee": "0x103182cef",
      "l1GasPrice": "0x93143bc6",
      "l1GasUsed": "0x640"
    }
  ],
  "libraries": [],
  "pending": [],
  "returns": {},
  "timestamp": 1730376973,
  "chain": 84532,
  "commit": "069a84c"
}