{
  "transactions": [
    {
      "hash": "0x3fda39a7464bf228b7257a72beb0d33ec489c8cc98579d7c490c53cb2679dc24",
      "transactionType": "CALL",
      "contractName": null,
      "contractAddress": "0x036cbd53842c5426634e7929541ec2318f3dcf7e",
      "function": "approve(address,uint256)",
      "arguments": [
        "0x65904DE3408216d0E8C18dfdE7198AFBCd3cC5ca",
        "2000000"
      ],
      "transaction": {
        "from": "0xc855358e52e0efef34aad09a8914d9ccb6d96f80",
        "to": "0x036cbd53842c5426634e7929541ec2318f3dcf7e",
        "gas": "0x12b1b",
        "value": "0x0",
        "input": "0x095ea7b300000000000000000000000065904de3408216d0e8c18dfde7198afbcd3cc5ca00000000000000000000000000000000000000000000000000000000001e8480",
        "nonce": "0x50",
        "chainId": "0x14a34"
      },
      "additionalContracts": [],
      "isFixedGasLimit": false
    }
  ],
  "receipts": [
    {
      "status": "0x1",
      "cumulativeGasUsed": "0x3eb83d",
      "logs": [
        {
          "address": "0x036cbd53842c5426634e7929541ec2318f3dcf7e",
          "topics": [
            "0x8c5be1e5ebec7d5bd14f71427d1e84f3dd0314c0f7b2291e5b200ac8c7c3b925",
            "0x000000000000000000000000c855358e52e0efef34aad09a8914d9ccb6d96f80",
            "0x00000000000000000000000065904de3408216d0e8c18dfde7198afbcd3cc5ca"
          ],
          "data": "0x00000000000000000000000000000000000000000000000000000000001e8480",
          "blockHash": "0xb9e11e2c83cfa1379563ddc202967942cf305d322df2681e981d6e9abbf2da44",
          "blockNumber": "0x107fe51",
          "transactionHash": "0x3fda39a7464bf228b7257a72beb0d33ec489c8cc98579d7c490c53cb2679dc24",
          "transactionIndex": "0xf",
          "logIndex": "0x2b",
          "removed": false
        }
      ],
      "logsBloom": "0x20000000040000000000000000000000000000000000000000000000000000000000000000000000000000000000000000000000000000000000000000200000000000000000000000000000000000000000000000000000000000000000008800000000000000000000000000000000000000000000000000000000000000000000000000000000000000000000000000000000000000000000000000000000020000000000000000000000000000000000000000000000000000010000000000000000000000000000000000000000004000000000000080000000000000000010800000000000000000000020000000000000000000000000000000000000",
      "type": "0x2",
      "transactionHash": "0x3fda39a7464bf228b7257a72beb0d33ec489c8cc98579d7c490c53cb2679dc24",
      "transactionIndex": "0xf",
      "blockHash": "0xb9e11e2c83cfa1379563ddc202967942cf305d322df2681e981d6e9abbf2da44",
      "blockNumber": "0x107fe51",
      "gasUsed": "0xd88d",
      "effectiveGasPrice": "0xf43a4",
      "from": "0xc855358e52e0efef34aad09a8914d9ccb6d96f80",
      "to": "0x036cbd53842c5426634e7929541ec2318f3dcf7e",
      "contractAddress": null,
      "l1BaseFeeScalar": "0x44d",
      "l1BlobBaseFee": "0x1",
      "l1BlobBaseFeeScalar": "0xa118b",
      "l1Fee": "0x3885ca12e",
      "l1GasPrice": "0x201601004",
      "l1GasUsed": "0x640"
    }
  ],
  "libraries": [],
  "pending": [],
  "returns": {},
  "timestamp": 1730370441,
  "chain": 84532,
  "commit": "069a84c"
}