{
  "transactions": [
    {
      "hash": "0xb0c86589c53664952c5b209459f7293b04184ef6f5c0dbbe2ae90812b6b0b7e3",
      "transactionType": "CALL",
      "contractName": null,
      "contractAddress": "0x036cbd53842c5426634e7929541ec2318f3dcf7e",
      "function": "approve(address,uint256)",
      "arguments": [
        "0xb48F1E15c21A643fd6C47542EdD097ea5f0aece0",
        "10"
      ],
      "transaction": {
        "from": "0xc855358e52e0efef34aad09a8914d9ccb6d96f80",
        "to": "0x036cbd53842c5426634e7929541ec2318f3dcf7e",
        "gas": "0x12afa",
        "value": "0x0",
        "input": "0x095ea7b3000000000000000000000000b48f1e15c21a643fd6c47542edd097ea5f0aece0000000000000000000000000000000000000000000000000000000000000000a",
        "nonce": "0x3b",
        "chainId": "0x14a34"
      },
      "additionalContracts": [],
      "isFixedGasLimit": false
    }
  ],
  "receipts": [
    {
      "status": "0x1",
      "cumulativeGasUsed": "0x1f916c",
      "logs": [
        {
          "address": "0x036cbd53842c5426634e7929541ec2318f3dcf7e",
          "topics": [
            "0x8c5be1e5ebec7d5bd14f71427d1e84f3dd0314c0f7b2291e5b200ac8c7c3b925",
            "0x000000000000000000000000c855358e52e0efef34aad09a8914d9ccb6d96f80",
            "0x000000000000000000000000b48f1e15c21a643fd6c47542edd097ea5f0aece0"
          ],
          "data": "0x000000000000000000000000000000000000000000000000000000000000000a",
          "blockHash": "0xd9f8402aaab3c1d5274c001ded39636242964f75ce8dd129c0b634e325cd2c2c",
          "blockNumber": "0x107a1f9",
          "transactionHash": "0xb0c86589c53664952c5b209459f7293b04184ef6f5c0dbbe2ae90812b6b0b7e3",
          "transactionIndex": "0xa",
          "logIndex": "0x1d",
          "removed": false
        }
      ],
      "logsBloom": "0x00000000040000000000000000000000000000000000000000000000000000000000000000000000000000000000000000000000000000000000000000200000000000000000000000000000000000000000000000000000000000000000008800000000000000000000000000000000000000000000000000000000000000000000000000000000000000000000000000000000000000000000000000000000020000000000000000000000000000000000000000000000000000010000000000000000000000000000000080000100000000000000000080000000000000000010000000000000000000000020000000040000000000000000000000000000",
      "type": "0x2",
      "transactionHash": "0xb0c86589c53664952c5b209459f7293b04184ef6f5c0dbbe2ae90812b6b0b7e3",
      "transactionIndex": "0xa",
      "blockHash": "0xd9f8402aaab3c1d5274c001ded39636242964f75ce8dd129c0b634e325cd2c2c",
      "blockNumber": "0x107a1f9",
      "gasUsed": "0xd875",
      "effectiveGasPrice": "0x8662b",
      "from": "0xc855358e52e0efef34aad09a8914d9ccb6d96f80",
      "to": "0x036cbd53842c5426634e7929541ec2318f3dcf7e",
      "contractAddress": null,
      "l1BaseFeeScalar": "0x44d",
      "l1BlobBaseFee": "0x1",
      "l1BlobBaseFeeScalar": "0xa118b",
      "l1Fee": "0xd1d0dc15",
      "l1GasPrice": "0x771af35f",
      "l1GasUsed": "0x640"
    }
  ],
  "libraries": [],
  "pending": [],
  "returns": {},
  "timestamp": 1730323155,
  "chain": 84532,
  "commit": "069a84c"
}