{
  "transactions": [
    {
      "hash": "0x097698464b8e2e0c90cc3396f43aa5b148477dd9411daeffd9504f666d9e3735",
      "transactionType": "CALL",
      "contractName": null,
      "contractAddress": "0x036cbd53842c5426634e7929541ec2318f3dcf7e",
      "function": "approve(address,uint256)",
      "arguments": [
        "0xdcC18eea2ec190D6d008414F332474DCb3795581",
        "10"
      ],
      "transaction": {
        "from": "0xc855358e52e0efef34aad09a8914d9ccb6d96f80",
        "to": "0x036cbd53842c5426634e7929541ec2318f3dcf7e",
        "gas": "0x12afa",
        "value": "0x0",
        "input": "0x095ea7b3000000000000000000000000dcc18eea2ec190d6d008414f332474dcb3795581000000000000000000000000000000000000000000000000000000000000000a",
        "nonce": "0x3d",
        "chainId": "0x14a34"
      },
      "additionalContracts": [],
      "isFixedGasLimit": false
    }
  ],
  "receipts": [
    {
      "status": "0x1",
      "cumulativeGasUsed": "0x151fe7",
      "logs": [
        {
          "address": "0x036cbd53842c5426634e7929541ec2318f3dcf7e",
          "topics": [
            "0x8c5be1e5ebec7d5bd14f71427d1e84f3dd0314c0f7b2291e5b200ac8c7c3b925",
            "0x000000000000000000000000c855358e52e0efef34aad09a8914d9ccb6d96f80",
            "0x000000000000000000000000dcc18eea2ec190d6d008414f332474dcb3795581"
          ],
          "data": "0x000000000000000000000000000000000000000000000000000000000000000a",
          "blockHash": "0x6ec304d0a3bd354e481ba207e0b5c3c272532162a55f8f7e48928e547c18473f",
          "blockNumber": "0x107a463",
          "transactionHash": "0x097698464b8e2e0c90cc3396f43aa5b148477dd9411daeffd9504f666d9e3735",
          "transactionIndex": "0x10",
          "logIndex": "0xc",
          "removed": false
        }
      ],
      "logsBloom": "0x00000000040000000000000000000000000000000000000000000000000000000000000000000000000080000000000000000000000000000000000000200000000000000000000000000000000000000000000000000000000000000000008800000000000000080000000000000000000000000000000000000000000000000000000000000000000000000000000000000000000000000000000000000000020000000000000000000000000000000000000000000000000000010000000000000000000000000000000000000000000000000000000080000000000000000010000000000000000000000030000000000000000000000000000000000000",
      "type": "0x2",
      "transactionHash": "0x097698464b8e2e0c90cc3396f43aa5b148477dd9411daeffd9504f666d9e3735",
      "transactionIndex": "0x10",
      "blockHash": "0x6ec304d0a3bd354e481ba207e0b5c3c272532162a55f8f7e48928e547c18473f",
      "blockNumber": "0x107a463",
      "gasUsed": "0xd875",
      "effectiveGasPrice": "0xf4394",
      "from": "0xc855358e52e0efef34aad09a8914d9ccb6d96f80",
      "to": "0x036cbd53842c5426634e7929541ec2318f3dcf7e",
      "contractAddress": null,
      "l1BaseFeeScalar": "0x44d",
      "l1BlobBaseFee": "0x1",
      "l1BlobBaseFeeScalar": "0xa118b",
      "l1Fee": "0xba096074",
      "l1GasPrice": "0x699b4b89",
      "l1GasUsed": "0x640"
    }
  ],
  "libraries": [],
  "pending": [],
  "returns": {},
  "timestamp": 1730324396,
  "chain": 84532,
  "commit": "069a84c"
}