{
  "transactions": [
    {
      "hash": "0x8ac3230b6910f407ffa220ad21e1befb00abbad8b7b0311bac9961ed1c489f1b",
      "transactionType": "CALL",
      "contractName": null,
      "contractAddress": "0x036cbd53842c5426634e7929541ec2318f3dcf7e",
      "function": "approve(address,uint256)",
      "arguments": [
        "0x65904DE3408216d0E8C18dfdE7198AFBCd3cC5ca",
        "200000"
      ],
      "transaction": {
        "from": "0xc855358e52e0efef34aad09a8914d9ccb6d96f80",
        "to": "0x036cbd53842c5426634e7929541ec2318f3dcf7e",
        "gas": "0xcb04",
        "value": "0x0",
        "input": "0x095ea7b300000000000000000000000065904de3408216d0e8c18dfde7198afbcd3cc5ca0000000000000000000000000000000000000000000000000000000000030d40",
        "nonce": "0x5b",
        "chainId": "0x14a34"
      },
      "additionalContracts": [],
      "isFixedGasLimit": false
    }
  ],
  "receipts": [
    {
      "status": "0x1",
      "cumulativeGasUsed": "0x4a2c44",
      "logs": [
        {
          "address": "0x036cbd53842c5426634e7929541ec2318f3dcf7e",
          "topics": [
            "0x8c5be1e5ebec7d5bd14f71427d1e84f3dd0314c0f7b2291e5b200ac8c7c3b925",
            "0x000000000000000000000000c855358e52e0efef34aad09a8914d9ccb6d96f80",
            "0x00000000000000000000000065904de3408216d0e8c18dfde7198afbcd3cc5ca"
          ],
          "data": "0x0000000000000000000000000000000000000000000000000000000000030d40",
          "blockHash": "0x3601e73a1228919b2f1399016e0121234945aa336f26eefabe586c89c59ad371",
          "blockNumber": "0x1080ca0",
          "transactionHash": "0x8ac3230b6910f407ffa220ad21e1befb00abbad8b7b0311bac9961ed1c489f1b",
          "transactionIndex": "0xf",
          "logIndex": "0x1c",
          "removed": false
        }
      ],
      "logsBloom": "0x20000000040000000000000000000000000000000000000000000000000000000000000000000000000000000000000000000000000000000000000000200000000000000000000000000000000000000000000000000000000000000000008800000000000000000000000000000000000000000000000000000000000000000000000000000000000000000000000000000000000000000000000000000000020000000000000000000000000000000000000000000000000000010000000000000000000000000000000000000000004000000000000080000000000000000010800000000000000000000020000000000000000000000000000000000000",
      "type": "0x2",
      "transactionHash": "0x8ac3230b6910f407ffa220ad21e1befb00abbad8b7b0311bac9961ed1c489f1b",
      "transactionIndex": "0xf",
      "blockHash": "0x3601e73a1228919b2f1399016e0121234945aa336f26eefabe586c89c59ad371",
      "blockNumber": "0x1080ca0",
      "gasUsed": "0x8ad1",
      "effectiveGasPrice": "0xf46e5",
      "from": "0xc855358e52e0efef34aad09a8914d9ccb6d96f80",
      "to": "0x036cbd53842c5426634e7929541ec2318f3dcf7e",
      "contractAddress": null,
      "l1BaseFeeScalar": "0x44d",
      "l1BlobBaseFee": "0x1",
      "l1BlobBaseFeeScalar": "0xa118b",
      "l1Fee": "0x24ceb4759",
      "l1GasPrice": "0x14e4f267f",
      "l1GasUsed": "0x640"
    }
  ],
  "libraries": [],
  "pending": [],
  "returns": {},
  "timestamp": 1730377763,
  "chain": 84532,
  "commit": "069a84c"
}