{
  "transactions": [
    {
      "hash": "0xbba8cfd5d6051dca207655cd0a163d1d2502cdd3c9ceb909887b59a9c819cdde",
      "transactionType": "CALL",
      "contractName": null,
      "contractAddress": "0x04bb910f008c1df1f2beff29d98b744a7d35d531",
      "function": "mint(uint256)",
      "arguments": [
        "3000000000000000000"
      ],
      "transaction": {
        "from": "0xc855358e52e0efef34aad09a8914d9ccb6d96f80",
        "to": "0x04bb910f008c1df1f2beff29d98b744a7d35d531",
        "gas": "0xb592",
        "value": "0x0",
        "input": "0xa0712d6800000000000000000000000000000000000000000000000029a2241af62c0000",
        "nonce": "0x26",
        "chainId": "0x14a34"
      },
      "additionalContracts": [],
      "isFixedGasLimit": false
    }
  ],
  "receipts": [
    {
      "status": "0x1",
      "cumulativeGasUsed": "0xfe1d0e",
      "logs": [
        {
          "address": "0x04bb910f008c1df1f2beff29d98b744a7d35d531",
          "topics": [
            "0xddf252ad1be2c89b69c2b068fc378daa952ba7f163c4a11628f55a4df523b3ef",
            "0x0000000000000000000000000000000000000000000000000000000000000000",
            "0x000000000000000000000000c855358e52e0efef34aad09a8914d9ccb6d96f80"
          ],
          "data": "0x00000000000000000000000000000000000000000000000029a2241af62c0000",
          "blockHash": "0x1a0f737aa5757031579f426692c0854131af498da60b8783f9ed453952369eeb",
          "blockNumber": "0x10644c0",
          "transactionHash": "0xbba8cfd5d6051dca207655cd0a163d1d2502cdd3c9ceb909887b59a9c819cdde",
          "transactionIndex": "0x7",
          "logIndex": "0x1b1",
          "removed": false
        }
      ],
      "logsBloom": "0x00000000000000800000000000000000000000000000000000000000000000000000000000000000000000000000000000000000100000000000000000000000000000000000000000000008000000000000000000000000000000000000008000000000020000000000000000000800000000000000000000000010000000000000000000000000000000000000000000000000000000000000000000000000000000000000000000000080000000000000000000000000000000010000000000000002000000000000000000000000000000000000000080000000000020000000000000000000000000000000000000000000000000000000000000000000",
      "type": "0x2",
      "transactionHash": "0xbba8cfd5d6051dca207655cd0a163d1d2502cdd3c9ceb909887b59a9c819cdde",
      "transactionIndex": "0x7",
      "blockHash": "0x1a0f737aa5757031579f426692c0854131af498da60b8783f9ed453952369eeb",
      "blockNumber": "0x10644c0",
      "gasUsed": "0x8375",
      "effectiveGasPrice": "0xf43b9",
      "from": "0xc855358e52e0efef34aad09a8914d9ccb6d96f80",
      "to": "0x04bb910f008c1df1f2beff29d98b744a7d35d531",
      "contractAddress": null,
      "l1BaseFeeScalar": "0x44d",
      "l1BlobBaseFee": "0x1",
      "l1BlobBaseFeeScalar": "0xa118b",
      "l1Fee": "0x5cf520bf",
      "l1GasPrice": "0x34c4d069",
      "l1GasUsed": "0x640"
    }
  ],
  "libraries": [],
  "pending": [],
  "returns": {},
  "timestamp": 1730144354,
  "chain": 84532,
  "commit": "8e687d6"
}