{
  "transactions": [
    {
      "hash": "0x0e8f0e747bd8b243ade4e42908bc325ffa59cfc2a7ac39ce92be8cbd85b29642",
      "transactionType": "CALL",
      "contractName": null,
      "contractAddress": "0x9b5d2c2b5a3b8f68d357d8951110ffda47fb2832",
      "function": "setPeers(uint16,address,address,address,address)",
      "arguments": [
        "10004",
        "0xE0D5517ddf0fa8B21E5C0f023bF315121A6D97C0",
        "0xf0E38908465de8e7818934Ce89D814D36EdCD9b8",
        "0x9d5F30B785e80E669cc8F9A66798Eb1017AA45b2",
        "0xB9A85Da4BB98472c1305b86fAEc8825b2BaeF5a4"
      ],
      "transaction": {
        "from": "0xc855358e52e0efef34aad09a8914d9ccb6d96f80",
        "to": "0x9b5d2c2b5a3b8f68d357d8951110ffda47fb2832",
        "gas": "0x38839",
        "value": "0x0",
        "input": "0xb861b4790000000000000000000000000000000000000000000000000000000000002714000000000000000000000000e0d5517ddf0fa8b21e5c0f023bf315121a6d97c0000000000000000000000000f0e38908465de8e7818934ce89d814d36edcd9b80000000000000000000000009d5f30b785e80e669cc8f9a66798eb1017aa45b2000000000000000000000000b9a85da4bb98472c1305b86faec8825b2baef5a4",
        "nonce": "0x13",
        "chainId": "0xaa37dc"
      },
      "additionalContracts": [],
      "isFixedGasLimit": false
    }
  ],
  "receipts": [
    {
      "status": "0x1",
      "cumulativeGasUsed": "0x130876",
      "logs": [
        {
          "address": "0xe0d5517ddf0fa8b21e5c0f023bf315121a6d97c0",
          "topics": [
            "0x1456404e7f41f35c3daac941bb50bad417a66275c3040061b4287d787719599d",
            "0x0000000000000000000000000000000000000000000000000000000000002714"
          ],
          "data": "0x000000000000000000000000000000000000000000000000000000000000000000000000000000000000000000000000000000000000000000000000000000000000000000000000000000009d5f30b785e80e669cc8f9a66798eb1017aa45b20000000000000000000000000000000000000000000000000000000000000012",
          "blockHash": "0x8cba70fccad926d709f6f62796fa56c3442537d23bf14cd941742f55c661b859",
          "blockNumber": "0x1248505",
          "transactionHash": "0x0e8f0e747bd8b243ade4e42908bc325ffa59cfc2a7ac39ce92be8cbd85b29642",
          "transactionIndex": "0x2",
          "logIndex": "0xe",
          "removed": false
        },
        {
          "address": "0x31377888146f3253211efef5c676d41ece7d58fe",
          "topics": [
            "0x6eb224fb001ed210e379b335e35efe88672a8ce935d981a6896b27ffdf52a3b2",
            "0x000000000000000000000000f0e38908465de8e7818934ce89d814d36edcd9b8"
          ],
          "data": "0x00000000000000000000000000000000000000000000000000000000000000010000000000000000000000000000000000000000000000000000000000000000000000000000000000000000000000000000000000000000000000000000008000000000000000000000000000000000000000000000000000000000000000ca000000000000000000000000000000000000000000000000000000000000002618fc67c22714000000000000000000000000b9a85da4bb98472c1305b86faec8825b2baef5a40000000000000000000000000000000000000000000000000000",
          "blockHash": "0x8cba70fccad926d709f6f62796fa56c3442537d23bf14cd941742f55c661b859",
          "blockNumber": "0x1248505",
          "transactionHash": "0x0e8f0e747bd8b243ade4e42908bc325ffa59cfc2a7ac39ce92be8cbd85b29642",
          "transactionIndex": "0x2",
          "logIndex": "0xf",
          "removed": false
        },
        {
          "address": "0xf0e38908465de8e7818934ce89d814d36edcd9b8",
          "topics": [
            "0xa559263ee060c7a2560843b3a064ff0376c9753ae3e2449b595a3b615d326466"
          ],
          "data": "0x0000000000000000000000000000000000000000000000000000000000002714000000000000000000000000b9a85da4bb98472c1305b86faec8825b2baef5a4",
          "blockHash": "0x8cba70fccad926d709f6f62796fa56c3442537d23bf14cd941742f55c661b859",
          "blockNumber": "0x1248505",
          "transactionHash": "0x0e8f0e747bd8b243ade4e42908bc325ffa59cfc2a7ac39ce92be8cbd85b29642",
          "transactionIndex": "0x2",
          "logIndex": "0x10",
          "removed": false
        }
      ],
      "logsBloom": "0x04200000000108000000002000000000200000000000000000000000200000000010000000000800002000000010000000000000000000000000000000000000000000000000000000000000000000000000000100000000000000000000000000002040100000000000000000000000000000000000000000000000000000000000000000000000000008000000000040000000000000001000000000000100000000000400000000000000000000000000000000800000000000000000000000000000000000000000000000000000000000000000000000000000000000000000000800000000010000000000000000000000000000000000080000000000",
      "type": "0x2",
      "transactionHash": "0x0e8f0e747bd8b243ade4e42908bc325ffa59cfc2a7ac39ce92be8cbd85b29642",
      "transactionIndex": "0x2",
      "blockHash": "0x8cba70fccad926d709f6f62796fa56c3442537d23bf14cd941742f55c661b859",
      "blockNumber": "0x1248505",
      "gasUsed": "0x28ea5",
      "effectiveGasPrice": "0xf6a4e",
      "from": "0xc855358e52e0efef34aad09a8914d9ccb6d96f80",
      "to": "0x9b5d2c2b5a3b8f68d357d8951110ffda47fb2832",
      "contractAddress": null,
      "l1BaseFeeScalar": "0x1db0",
      "l1BlobBaseFee": "0x1",
      "l1BlobBaseFeeScalar": "0xd2730",
      "l1Fee": "0x353067f9c",
      "l1GasPrice": "0x3055f8dd",
      "l1GasUsed": "0x90c"
    }
  ],
  "libraries": [],
  "pending": [],
  "returns": {},
  "timestamp": 1730143679,
  "chain": 11155420,
  "commit": "8e687d6"
}