{
  "transactions": [
    {
      "hash": "0xeb5e69248d0d15646c75a00fff9bd4adbe222e5c8031c000966f6aeac39529cc",
      "transactionType": "CALL",
      "contractName": null,
      "contractAddress": "0x9f3b8679c73c2fef8b59b4f3444d4e156fb70aa5",
      "function": "depositForBurn(uint256,uint32,bytes32,address)",
      "arguments": [
        "10",
        "2",
        "0x000000000000000000000000c855358e52e0efef34aad09a8914d9ccb6d96f80",
        "0x036CbD53842c5426634e7929541eC2318f3dCF7e"
      ],
      "transaction": {
        "from": "0xc855358e52e0efef34aad09a8914d9ccb6d96f80",
        "to": "0x9f3b8679c73c2fef8b59b4f3444d4e156fb70aa5",
        "gas": "0x24839",
        "value": "0x0",
        "input": "0x6fd3504e000000000000000000000000000000000000000000000000000000000000000a0000000000000000000000000000000000000000000000000000000000000002000000000000000000000000c855358e52e0efef34aad09a8914d9ccb6d96f80000000000000000000000000036cbd53842c5426634e7929541ec2318f3dcf7e",
        "nonce": "0x31",
        "chainId": "0x14a34"
      },
      "additionalContracts": [],
      "isFixedGasLimit": false
    }
  ],
  "receipts": [
    {
      "status": "0x1",
      "cumulativeGasUsed": "0x165f9c",
      "logs": [
        {
          "address": "0x036cbd53842c5426634e7929541ec2318f3dcf7e",
          "topics": [
            "0xddf252ad1be2c89b69c2b068fc378daa952ba7f163c4a11628f55a4df523b3ef",
            "0x000000000000000000000000c855358e52e0efef34aad09a8914d9ccb6d96f80",
            "0x000000000000000000000000e997d7d2f6e065a9a93fa2175e878fb9081f1f0a"
          ],
          "data": "0x000000000000000000000000000000000000000000000000000000000000000a",
          "blockHash": "0xd3f7a68e4be64cbdcbbde13c1d7701c166df937610ce991af7c9a2070b023d72",
          "blockNumber": "0x10726e1",
          "transactionHash": "0xeb5e69248d0d15646c75a00fff9bd4adbe222e5c8031c000966f6aeac39529cc",
          "transactionIndex": "0xa",
          "logIndex": "0x18",
          "removed": false
        },
        {
          "address": "0x036cbd53842c5426634e7929541ec2318f3dcf7e",
          "topics": [
            "0xcc16f5dbb4873280815c1ee09dbd06736cffcc184412cf7a71a0fdb75d397ca5",
            "0x000000000000000000000000e997d7d2f6e065a9a93fa2175e878fb9081f1f0a"
          ],
          "data": "0x000000000000000000000000000000000000000000000000000000000000000a",
          "blockHash": "0xd3f7a68e4be64cbdcbbde13c1d7701c166df937610ce991af7c9a2070b023d72",
          "blockNumber": "0x10726e1",
          "transactionHash": "0xeb5e69248d0d15646c75a00fff9bd4adbe222e5c8031c000966f6aeac39529cc",
          "transactionIndex": "0xa",
          "logIndex": "0x19",
          "removed": false
        },
        {
          "address": "0x036cbd53842c5426634e7929541ec2318f3dcf7e",
          "topics": [
            "0xddf252ad1be2c89b69c2b068fc378daa952ba7f163c4a11628f55a4df523b3ef",
            "0x000000000000000000000000e997d7d2f6e065a9a93fa2175e878fb9081f1f0a",
            "0x0000000000000000000000000000000000000000000000000000000000000000"
          ],
          "data": "0x000000000000000000000000000000000000000000000000000000000000000a",
          "blockHash": "0xd3f7a68e4be64cbdcbbde13c1d7701c166df937610ce991af7c9a2070b023d72",
          "blockNumber": "0x10726e1",
          "transactionHash": "0xeb5e69248d0d15646c75a00fff9bd4adbe222e5c8031c000966f6aeac39529cc",
          "transactionIndex": "0xa",
          "logIndex": "0x1a",
          "removed": false
        },
        {
          "address": "0x7865fafc2db2093669d92c0f33aeef291086befd",
          "topics": [
            "0x8c5261668696ce22758910d05bab8f186d6eb247ceac2af2e82c7dc17669b036"
          ],
          "data": "0x000000000000000000000000000000000000000000000000000000000000002000000000000000000000000000000000000000000000000000000000000000f80000000000000006000000020000000000000d180000000000000000000000009f3b8679c73c2fef8b59b4f3444d4e156fb70aa50000000000000000000000009f3b8679c73c2fef8b59b4f3444d4e156fb70aa5000000000000000000000000000000000000000000000000000000000000000000000000000000000000000000000000036cbd53842c5426634e7929541ec2318f3dcf7e000000000000000000000000c855358e52e0efef34aad09a8914d9ccb6d96f80000000000000000000000000000000000000000000000000000000000000000a000000000000000000000000c855358e52e0efef34aad09a8914d9ccb6d96f800000000000000000",
          "blockHash": "0xd3f7a68e4be64cbdcbbde13c1d7701c166df937610ce991af7c9a2070b023d72",
          "blockNumber": "0x10726e1",
          "transactionHash": "0xeb5e69248d0d15646c75a00fff9bd4adbe222e5c8031c000966f6aeac39529cc",
          "transactionIndex": "0xa",
          "logIndex": "0x1b",
          "removed": false
        },
        {
          "address": "0x9f3b8679c73c2fef8b59b4f3444d4e156fb70aa5",
          "topics": [
            "0x2fa9ca894982930190727e75500a97d8dc500233a5065e0f3126c48fbe0343c0",
            "0x0000000000000000000000000000000000000000000000000000000000000d18",
            "0x000000000000000000000000036cbd53842c5426634e7929541ec2318f3dcf7e",
            "0x000000000000000000000000c855358e52e0efef34aad09a8914d9ccb6d96f80"
          ],
          "data": "0x000000000000000000000000000000000000000000000000000000000000000a000000000000000000000000c855358e52e0efef34aad09a8914d9ccb6d96f8000000000000000000000000000000000000000000000000000000000000000020000000000000000000000009f3b8679c73c2fef8b59b4f3444d4e156fb70aa50000000000000000000000000000000000000000000000000000000000000000",
          "blockHash": "0xd3f7a68e4be64cbdcbbde13c1d7701c166df937610ce991af7c9a2070b023d72",
          "blockNumber": "0x10726e1",
          "transactionHash": "0xeb5e69248d0d15646c75a00fff9bd4adbe222e5c8031c000966f6aeac39529cc",
          "transactionIndex": "0xa",
          "logIndex": "0x1c",
          "removed": false
        }
      ],
      "logsBloom": "0x00000000040000000000000000000000000000000000001000000000000000000000000000000200008000000000000000000010000000000000000000000000000000000000000000000008000000000000000000000000000200020000008800000000022000400000000000000800080000000040000000100014100000000000000040001004000000000000000000000000000000000000000000200000000000000000000000000000000000000000000000000000100000010000000000000002000000000400000000000000000000000000000080000000000020000000000c00000020000000000060000000080000000000000000000000000000",
      "type": "0x2",
      "transactionHash": "0xeb5e69248d0d15646c75a00fff9bd4adbe222e5c8031c000966f6aeac39529cc",
      "transactionIndex": "0xa",
      "blockHash": "0xd3f7a68e4be64cbdcbbde13c1d7701c166df937610ce991af7c9a2070b023d72",
      "blockNumber": "0x10726e1",
      "gasUsed": "0x1a6f8",
      "effectiveGasPrice": "0xf4384",
      "from": "0xc855358e52e0efef34aad09a8914d9ccb6d96f80",
      "to": "0x9f3b8679c73c2fef8b59b4f3444d4e156fb70aa5",
      "contractAddress": null,
      "l1BaseFeeScalar": "0x44d",
      "l1BlobBaseFee": "0x1",
      "l1BlobBaseFeeScalar": "0xa118b",
      "l1Fee": "0x15725a123",
      "l1GasPrice": "0xaef7dbc6",
      "l1GasUsed": "0x6f5"
    }
  ],
  "libraries": [],
  "pending": [],
  "returns": {},
  "timestamp": 1730260137,
  "chain": 84532,
  "commit": "069a84c"
}