{
  "transactions": [
    {
      "hash": "0x55db0082655b4eb7d5bc72b728ecf8a1815ad709ca108ba2e44b6b8ab4c4643b",
      "transactionType": "CALL",
      "contractName": null,
      "contractAddress": "0x036cbd53842c5426634e7929541ec2318f3dcf7e",
      "function": "approve(address,uint256)",
      "arguments": [
        "0x9f3B8679c73C2Fef8b59B4f3444d4e156fb70AA5",
        "50"
      ],
      "transaction": {
        "from": "0xc855358e52e0efef34aad09a8914d9ccb6d96f80",
        "to": "0x036cbd53842c5426634e7929541ec2318f3dcf7e",
        "gas": "0x12afa",
        "value": "0x0",
        "input": "0x095ea7b30000000000000000000000009f3b8679c73c2fef8b59b4f3444d4e156fb70aa50000000000000000000000000000000000000000000000000000000000000032",
        "nonce": "0x2f",
        "chainId": "0x14a34"
      },
      "additionalContracts": [],
      "isFixedGasLimit": false
    }
  ],
  "receipts": [
    {
      "status": "0x1",
      "cumulativeGasUsed": "0xeab93",
      "logs": [
        {
          "address": "0x036cbd53842c5426634e7929541ec2318f3dcf7e",
          "topics": [
            "0x8c5be1e5ebec7d5bd14f71427d1e84f3dd0314c0f7b2291e5b200ac8c7c3b925",
            "0x000000000000000000000000c855358e52e0efef34aad09a8914d9ccb6d96f80",
            "0x0000000000000000000000009f3b8679c73c2fef8b59b4f3444d4e156fb70aa5"
          ],
          "data": "0x0000000000000000000000000000000000000000000000000000000000000032",
          "blockHash": "0x76125f6d9e18a42f0cc2fe1e508950522fb75b003a433d9d3f4989d1df4695bb",
          "blockNumber": "0x106ed67",
          "transactionHash": "0x55db0082655b4eb7d5bc72b728ecf8a1815ad709ca108ba2e44b6b8ab4c4643b",
          "transactionIndex": "0x5",
          "logIndex": "0xe",
          "removed": false
        }
      ],
      "logsBloom": "0x00000000040000000000000000000000000000000000000000000000000000800000000000000000000000000000000000000000000000000000000000200000000000000000000000000000000000000000000000000000000000000000008800000000000000000000000000000000000000000000000010000000000000000000000000000000000000000000000000000000000000000000000000000000020000000000000000000000000000000000000000000000000000010000000000000000000000000000000000000000000000000000000080000000000000000010000000000000000000000020010000000000000000000000000000000000",
      "type": "0x2",
      "transactionHash": "0x55db0082655b4eb7d5bc72b728ecf8a1815ad709ca108ba2e44b6b8ab4c4643b",
      "transactionIndex": "0x5",
      "blockHash": "0x76125f6d9e18a42f0cc2fe1e508950522fb75b003a433d9d3f4989d1df4695bb",
      "blockNumber": "0x106ed67",
      "gasUsed": "0xd875",
      "effectiveGasPrice": "0xf4392",
      "from": "0xc855358e52e0efef34aad09a8914d9ccb6d96f80",
      "to": "0x036cbd53842c5426634e7929541ec2318f3dcf7e",
      "contractAddress": null,
      "l1BaseFeeScalar": "0x44d",
      "l1BlobBaseFee": "0x11993d0609",
      "l1BlobBaseFeeScalar": "0xa118b",
      "l1Fee": "0x489d6906865",
      "l1GasPrice": "0x56432004",
      "l1GasUsed": "0x640"
    }
  ],
  "libraries": [],
  "pending": [],
  "returns": {},
  "timestamp": 1730230703,
  "chain": 84532,
  "commit": "069a84c"
}