{
  "transactions": [
    {
      "hash": "0xaed030bfc86e6223794a988350d05920ae1445b88368a100d5d4ad9881e714a9",
      "transactionType": "CALL",
      "contractName": null,
      "contractAddress": "0x498180d1f0bda6485393f45e0d5b0805488e851a",
      "function": "setPeers(uint16,address,address,address,address)",
      "arguments": [
        "10005",
        "0x9d5F30B785e80E669cc8F9A66798Eb1017AA45b2",
        "0xB9A85Da4BB98472c1305b86fAEc8825b2BaeF5a4",
        "0xE0D5517ddf0fa8B21E5C0f023bF315121A6D97C0",
        "0xf0E38908465de8e7818934Ce89D814D36EdCD9b8"
      ],
      "transaction": {
        "from": "0xc855358e52e0efef34aad09a8914d9ccb6d96f80",
        "to": "0x498180d1f0bda6485393f45e0d5b0805488e851a",
        "gas": "0x3bd8a",
        "value": "0x0",
        "input": "0xb861b47900000000000000000000000000000000000000000000000000000000000027150000000000000000000000009d5f30b785e80e669cc8f9a66798eb1017aa45b2000000000000000000000000b9a85da4bb98472c1305b86faec8825b2baef5a4000000000000000000000000e0d5517ddf0fa8b21e5c0f023bf315121a6d97c0000000000000000000000000f0e38908465de8e7818934ce89d814d36edcd9b8",
        "nonce": "0x24",
        "chainId": "0x14a34"
      },
      "additionalContracts": [],
      "isFixedGasLimit": false
    }
  ],
  "receipts": [
    {
      "status": "0x1",
      "cumulativeGasUsed": "0x14e8fb",
      "logs": [
        {
          "address": "0x9d5f30b785e80e669cc8f9a66798eb1017aa45b2",
          "topics": [
            "0x1456404e7f41f35c3daac941bb50bad417a66275c3040061b4287d787719599d",
            "0x0000000000000000000000000000000000000000000000000000000000002715"
          ],
          "data": "0x00000000000000000000000000000000000000000000000000000000000000000000000000000000000000000000000000000000000000000000000000000000000000000000000000000000e0d5517ddf0fa8b21e5c0f023bf315121a6d97c00000000000000000000000000000000000000000000000000000000000000012",
          "blockHash": "0xe0dee6648d0b1ef854141ac0ad0e4d1df831c3a1caf82be18de2206ae5f8269d",
          "blockNumber": "0x1064245",
          "transactionHash": "0xaed030bfc86e6223794a988350d05920ae1445b88368a100d5d4ad9881e714a9",
          "transactionIndex": "0x5",
          "logIndex": "0x2",
          "removed": false
        },
        {
          "address": "0x79a1027a6a159502049f10906d333ec57e95f083",
          "topics": [
            "0x6eb224fb001ed210e379b335e35efe88672a8ce935d981a6896b27ffdf52a3b2",
            "0x000000000000000000000000b9a85da4bb98472c1305b86faec8825b2baef5a4"
          ],
          "data": "0x00000000000000000000000000000000000000000000000000000000000000010000000000000000000000000000000000000000000000000000000000000000000000000000000000000000000000000000000000000000000000000000008000000000000000000000000000000000000000000000000000000000000000ca000000000000000000000000000000000000000000000000000000000000002618fc67c22715000000000000000000000000f0e38908465de8e7818934ce89d814d36edcd9b80000000000000000000000000000000000000000000000000000",
          "blockHash": "0xe0dee6648d0b1ef854141ac0ad0e4d1df831c3a1caf82be18de2206ae5f8269d",
          "blockNumber": "0x1064245",
          "transactionHash": "0xaed030bfc86e6223794a988350d05920ae1445b88368a100d5d4ad9881e714a9",
          "transactionIndex": "0x5",
          "logIndex": "0x3",
          "removed": false
        },
        {
          "address": "0xb9a85da4bb98472c1305b86faec8825b2baef5a4",
          "topics": [
            "0xa559263ee060c7a2560843b3a064ff0376c9753ae3e2449b595a3b615d326466"
          ],
          "data": "0x0000000000000000000000000000000000000000000000000000000000002715000000000000000000000000f0e38908465de8e7818934ce89d814d36edcd9b8",
          "blockHash": "0xe0dee6648d0b1ef854141ac0ad0e4d1df831c3a1caf82be18de2206ae5f8269d",
          "blockNumber": "0x1064245",
          "transactionHash": "0xaed030bfc86e6223794a988350d05920ae1445b88368a100d5d4ad9881e714a9",
          "transactionIndex": "0x5",
          "logIndex": "0x4",
          "removed": false
        }
      ],
      "logsBloom": "0x00000000000100000000000000000000000000000000000000000000010000000018800000000000002000000010000000000000000000000000000000408000000000000000000000000000000000000000000100000000000000000000000000002000000000000000000000000000000000000000000000000000000000000000000000000200000008000000000000000000000000000000000000000000000000000400000000000000000100000000040200000000000000000000000000000000000000000000000000000000400002000000000000000000000000002000000000000000010000000000008000000000000001800000000000000000",
      "type": "0x2",
      "transactionHash": "0xaed030bfc86e6223794a988350d05920ae1445b88368a100d5d4ad9881e714a9",
      "transactionIndex": "0x5",
      "blockHash": "0xe0dee6648d0b1ef854141ac0ad0e4d1df831c3a1caf82be18de2206ae5f8269d",
      "blockNumber": "0x1064245",
      "gasUsed": "0x28ebb",
      "effectiveGasPrice": "0xf43b6",
      "from": "0xc855358e52e0efef34aad09a8914d9ccb6d96f80",
      "to": "0x498180d1f0bda6485393f45e0d5b0805488e851a",
      "contractAddress": null,
      "l1BaseFeeScalar": "0x44d",
      "l1BlobBaseFee": "0x1",
      "l1BlobBaseFeeScalar": "0xa118b",
      "l1Fee": "0x8197d960",
      "l1GasPrice": "0x32ceef46",
      "l1GasUsed": "0x90c"
    }
  ],
  "libraries": [],
  "pending": [],
  "returns": {},
  "timestamp": 1730143090,
  "chain": 84532,
  "commit": "8e687d6"
}